{
  "_format": "hh-sol-artifact-1",
  "contractName": "PaymentRouter",
  "sourceName": "contracts/PaymentRouter.sol",
  "abi": [
    {
      "inputs": [
        {
          "internalType": "contract ISuperfluid",
          "name": "host",
          "type": "address"
        },
        {
          "internalType": "address",
          "name": "_owner",
          "type": "address"
        }
      ],
      "stateMutability": "nonpayable",
      "type": "constructor"
    },
    {
      "inputs": [
        {
          "internalType": "address",
          "name": "",
          "type": "address"
        }
      ],
      "name": "accountList",
      "outputs": [
        {
          "internalType": "bool",
          "name": "",
          "type": "bool"
        }
      ],
      "stateMutability": "view",
      "type": "function"
    },
    {
      "inputs": [],
      "name": "cfaV1",
      "outputs": [
        {
          "internalType": "contract ISuperfluid",
          "name": "host",
          "type": "address"
        },
        {
          "internalType": "contract IConstantFlowAgreementV1",
          "name": "cfa",
          "type": "address"
        }
      ],
      "stateMutability": "view",
      "type": "function"
    },
    {
      "inputs": [
        {
          "internalType": "address",
          "name": "_newOwner",
          "type": "address"
        }
      ],
      "name": "changeOwner",
      "outputs": [],
      "stateMutability": "nonpayable",
      "type": "function"
    },
    {
      "inputs": [
        {
          "internalType": "contract ISuperfluidToken",
          "name": "token",
          "type": "address"
        },
        {
          "internalType": "address",
          "name": "receiver",
          "type": "address"
        },
        {
          "internalType": "int96",
          "name": "flowRate",
          "type": "int96"
        }
      ],
      "name": "createFlowFromContract",
      "outputs": [],
      "stateMutability": "nonpayable",
      "type": "function"
    },
    {
      "inputs": [
        {
          "internalType": "contract ISuperfluidToken",
          "name": "token",
          "type": "address"
        },
        {
          "internalType": "int96",
          "name": "flowRate",
          "type": "int96"
        }
      ],
      "name": "createFlowIntoContract",
      "outputs": [],
      "stateMutability": "nonpayable",
      "type": "function"
    },
    {
      "inputs": [
        {
          "internalType": "contract ISuperfluidToken",
          "name": "token",
          "type": "address"
        },
        {
          "internalType": "address",
          "name": "receiver",
          "type": "address"
        }
      ],
      "name": "deleteFlowFromContract",
      "outputs": [],
      "stateMutability": "nonpayable",
      "type": "function"
    },
    {
      "inputs": [
        {
          "internalType": "contract ISuperfluidToken",
          "name": "token",
          "type": "address"
        }
      ],
      "name": "deleteFlowIntoContract",
      "outputs": [],
      "stateMutability": "nonpayable",
      "type": "function"
    },
    {
      "inputs": [],
      "name": "owner",
      "outputs": [
        {
          "internalType": "address",
          "name": "",
          "type": "address"
        }
      ],
      "stateMutability": "view",
      "type": "function"
    },
    {
      "inputs": [
        {
          "internalType": "address",
          "name": "_account",
          "type": "address"
        }
      ],
      "name": "removeAccount",
      "outputs": [],
      "stateMutability": "nonpayable",
      "type": "function"
    },
    {
      "inputs": [
        {
          "internalType": "contract ISuperToken",
          "name": "token",
          "type": "address"
        },
        {
          "internalType": "uint256",
          "name": "amount",
          "type": "uint256"
        }
      ],
      "name": "sendLumpSumToContract",
      "outputs": [],
      "stateMutability": "nonpayable",
      "type": "function"
    },
    {
      "inputs": [
        {
          "internalType": "contract ISuperfluidToken",
          "name": "token",
          "type": "address"
        },
        {
          "internalType": "address",
          "name": "receiver",
          "type": "address"
        },
        {
          "internalType": "int96",
          "name": "newFlowRate",
          "type": "int96"
        }
      ],
      "name": "updateFlowFromContract",
      "outputs": [],
      "stateMutability": "nonpayable",
      "type": "function"
    },
    {
      "inputs": [
        {
          "internalType": "contract ISuperfluidToken",
          "name": "token",
          "type": "address"
        },
        {
          "internalType": "int96",
          "name": "newFlowRate",
          "type": "int96"
        }
      ],
      "name": "updateFlowIntoContract",
      "outputs": [],
      "stateMutability": "nonpayable",
      "type": "function"
    },
    {
      "inputs": [
        {
          "internalType": "address",
          "name": "_account",
          "type": "address"
        }
      ],
      "name": "whitelistAccount",
      "outputs": [],
      "stateMutability": "nonpayable",
      "type": "function"
    },
    {
      "inputs": [
        {
          "internalType": "contract ISuperToken",
          "name": "token",
          "type": "address"
        },
        {
          "internalType": "uint256",
          "name": "amount",
          "type": "uint256"
        }
      ],
      "name": "withdrawFunds",
      "outputs": [],
      "stateMutability": "nonpayable",
      "type": "function"
    }
  ],
  "bytecode": "0x60806040523480156200001157600080fd5b50604051620027a6380380620027a68339818101604052810190620000379190620002e0565b600073ffffffffffffffffffffffffffffffffffffffff168273ffffffffffffffffffffffffffffffffffffffff160362000077576200007662000327565b5b806000806101000a81548173ffffffffffffffffffffffffffffffffffffffff021916908373ffffffffffffffffffffffffffffffffffffffff16021790555060405180604001604052808373ffffffffffffffffffffffffffffffffffffffff1681526020018373ffffffffffffffffffffffffffffffffffffffff1663b6d200de7fa9214cc96615e0085d3bb077758db69497dc2dce3b2b1e97bc93c3d18d83efd36040518263ffffffff1660e01b815260040162000139919062000371565b602060405180830381865afa15801562000157573d6000803e3d6000fd5b505050506040513d601f19601f820116820180604052508101906200017d9190620003d3565b73ffffffffffffffffffffffffffffffffffffffff16815250600160008201518160000160006101000a81548173ffffffffffffffffffffffffffffffffffffffff021916908373ffffffffffffffffffffffffffffffffffffffff16021790555060208201518160010160006101000a81548173ffffffffffffffffffffffffffffffffffffffff021916908373ffffffffffffffffffffffffffffffffffffffff160217905550905050505062000405565b600080fd5b600073ffffffffffffffffffffffffffffffffffffffff82169050919050565b6000620002638262000236565b9050919050565b6000620002778262000256565b9050919050565b62000289816200026a565b81146200029557600080fd5b50565b600081519050620002a9816200027e565b92915050565b620002ba8162000256565b8114620002c657600080fd5b50565b600081519050620002da81620002af565b92915050565b60008060408385031215620002fa57620002f962000231565b5b60006200030a8582860162000298565b92505060206200031d85828601620002c9565b9150509250929050565b7f4e487b7100000000000000000000000000000000000000000000000000000000600052600160045260246000fd5b6000819050919050565b6200036b8162000356565b82525050565b600060208201905062000388600083018462000360565b92915050565b60006200039b8262000256565b9050919050565b620003ad816200038e565b8114620003b957600080fd5b50565b600081519050620003cd81620003a2565b92915050565b600060208284031215620003ec57620003eb62000231565b5b6000620003fc84828501620003bc565b91505092915050565b61239180620004156000396000f3fe608060405234801561001057600080fd5b50600436106100ea5760003560e01c8063a6f9dae11161008c578063c2f7c65411610066578063c2f7c65414610209578063c4740a9514610225578063d3112b2e14610241578063d3a07fcd14610260576100ea565b8063a6f9dae1146101b5578063b9f7b12b146101d1578063c1075329146101ed576100ea565b806363e0c2f8116100c857806363e0c2f8146101435780636715e19f1461015f5780638da5cb5b1461017b578063a5510b3214610199576100ea565b8063097e69ef146100ef57806326ff92e41461010b5780632fca924914610127575b600080fd5b61010960048036038101906101049190611a53565b610290565b005b61012560048036038101906101209190611b1a565b610396565b005b610141600480360381019061013c9190611b5a565b610504565b005b61015d60048036038101906101589190611b9a565b61060c565b005b61017960048036038101906101749190611bc7565b6106f5565b005b6101836107f9565b6040516101909190611c03565b60405180910390f35b6101b360048036038101906101ae9190611b5a565b61081d565b005b6101cf60048036038101906101ca9190611b9a565b610925565b005b6101eb60048036038101906101e69190611a53565b6109f6565b005b61020760048036038101906102029190611b1a565b610afc565b005b610223600480360381019061021e9190611c1e565b610c68565b005b61023f600480360381019061023a9190611b9a565b610d6d565b005b610249610e56565b604051610257929190611cde565b60405180910390f35b61027a60048036038101906102759190611b9a565b610ea8565b6040516102879190611d22565b60405180910390f35b60008054906101000a900473ffffffffffffffffffffffffffffffffffffffff1673ffffffffffffffffffffffffffffffffffffffff163373ffffffffffffffffffffffffffffffffffffffff16148061033a575060011515600360003373ffffffffffffffffffffffffffffffffffffffff1673ffffffffffffffffffffffffffffffffffffffff16815260200190815260200160002060009054906101000a900460ff161515145b610379576040517f08c379a000000000000000000000000000000000000000000000000000000000815260040161037090611d9a565b60405180910390fd5b6103918284836001610ec8909392919063ffffffff16565b505050565b60008054906101000a900473ffffffffffffffffffffffffffffffffffffffff1673ffffffffffffffffffffffffffffffffffffffff163373ffffffffffffffffffffffffffffffffffffffff161480610440575060011515600360003373ffffffffffffffffffffffffffffffffffffffff1673ffffffffffffffffffffffffffffffffffffffff16815260200190815260200160002060009054906101000a900460ff161515145b61047f576040517f08c379a000000000000000000000000000000000000000000000000000000000815260040161047690611d9a565b60405180910390fd5b8173ffffffffffffffffffffffffffffffffffffffff166323b872dd3330846040518463ffffffff1660e01b81526004016104bc93929190611dc9565b6020604051808303816000875af11580156104db573d6000803e3d6000fd5b505050506040513d601f19601f820116820180604052508101906104ff9190611e2c565b505050565b60008054906101000a900473ffffffffffffffffffffffffffffffffffffffff1673ffffffffffffffffffffffffffffffffffffffff163373ffffffffffffffffffffffffffffffffffffffff1614806105ae575060011515600360003373ffffffffffffffffffffffffffffffffffffffff1673ffffffffffffffffffffffffffffffffffffffff16815260200190815260200160002060009054906101000a900460ff161515145b6105ed576040517f08c379a00000000000000000000000000000000000000000000000000000000081526004016105e490611d9a565b60405180910390fd5b610607333084846001610f2890949392919063ffffffff16565b505050565b60008054906101000a900473ffffffffffffffffffffffffffffffffffffffff1673ffffffffffffffffffffffffffffffffffffffff163373ffffffffffffffffffffffffffffffffffffffff161461069a576040517f08c379a000000000000000000000000000000000000000000000000000000000815260040161069190611ecb565b60405180910390fd5b6001600360008373ffffffffffffffffffffffffffffffffffffffff1673ffffffffffffffffffffffffffffffffffffffff16815260200190815260200160002060006101000a81548160ff02191690831515021790555050565b60008054906101000a900473ffffffffffffffffffffffffffffffffffffffff1673ffffffffffffffffffffffffffffffffffffffff163373ffffffffffffffffffffffffffffffffffffffff16148061079f575060011515600360003373ffffffffffffffffffffffffffffffffffffffff1673ffffffffffffffffffffffffffffffffffffffff16815260200190815260200160002060009054906101000a900460ff161515145b6107de576040517f08c379a00000000000000000000000000000000000000000000000000000000081526004016107d590611d9a565b60405180910390fd5b6107f63330836001610f90909392919063ffffffff16565b50565b60008054906101000a900473ffffffffffffffffffffffffffffffffffffffff1681565b60008054906101000a900473ffffffffffffffffffffffffffffffffffffffff1673ffffffffffffffffffffffffffffffffffffffff163373ffffffffffffffffffffffffffffffffffffffff1614806108c7575060011515600360003373ffffffffffffffffffffffffffffffffffffffff1673ffffffffffffffffffffffffffffffffffffffff16815260200190815260200160002060009054906101000a900460ff161515145b610906576040517f08c379a00000000000000000000000000000000000000000000000000000000081526004016108fd90611d9a565b60405180910390fd5b610920333084846001610ff090949392919063ffffffff16565b505050565b60008054906101000a900473ffffffffffffffffffffffffffffffffffffffff1673ffffffffffffffffffffffffffffffffffffffff163373ffffffffffffffffffffffffffffffffffffffff16146109b3576040517f08c379a00000000000000000000000000000000000000000000000000000000081526004016109aa90611f37565b60405180910390fd5b806000806101000a81548173ffffffffffffffffffffffffffffffffffffffff021916908373ffffffffffffffffffffffffffffffffffffffff16021790555050565b60008054906101000a900473ffffffffffffffffffffffffffffffffffffffff1673ffffffffffffffffffffffffffffffffffffffff163373ffffffffffffffffffffffffffffffffffffffff161480610aa0575060011515600360003373ffffffffffffffffffffffffffffffffffffffff1673ffffffffffffffffffffffffffffffffffffffff16815260200190815260200160002060009054906101000a900460ff161515145b610adf576040517f08c379a0000000000000000000000000000000000000000000000000000000008152600401610ad690611d9a565b60405180910390fd5b610af78284836001611058909392919063ffffffff16565b505050565b60008054906101000a900473ffffffffffffffffffffffffffffffffffffffff1673ffffffffffffffffffffffffffffffffffffffff163373ffffffffffffffffffffffffffffffffffffffff161480610ba6575060011515600360003373ffffffffffffffffffffffffffffffffffffffff1673ffffffffffffffffffffffffffffffffffffffff16815260200190815260200160002060009054906101000a900460ff161515145b610be5576040517f08c379a0000000000000000000000000000000000000000000000000000000008152600401610bdc90611d9a565b60405180910390fd5b8173ffffffffffffffffffffffffffffffffffffffff1663a9059cbb33836040518363ffffffff1660e01b8152600401610c20929190611f57565b6020604051808303816000875af1158015610c3f573d6000803e3d6000fd5b505050506040513d601f19601f82011682018060405250810190610c639190611e2c565b505050565b60008054906101000a900473ffffffffffffffffffffffffffffffffffffffff1673ffffffffffffffffffffffffffffffffffffffff163373ffffffffffffffffffffffffffffffffffffffff161480610d12575060011515600360003373ffffffffffffffffffffffffffffffffffffffff1673ffffffffffffffffffffffffffffffffffffffff16815260200190815260200160002060009054906101000a900460ff161515145b610d51576040517f08c379a0000000000000000000000000000000000000000000000000000000008152600401610d4890611d9a565b60405180910390fd5b610d693082846001610f90909392919063ffffffff16565b5050565b60008054906101000a900473ffffffffffffffffffffffffffffffffffffffff1673ffffffffffffffffffffffffffffffffffffffff163373ffffffffffffffffffffffffffffffffffffffff1614610dfb576040517f08c379a0000000000000000000000000000000000000000000000000000000008152600401610df290611fcc565b60405180910390fd5b6000600360008373ffffffffffffffffffffffffffffffffffffffff1673ffffffffffffffffffffffffffffffffffffffff16815260200190815260200160002060006101000a81548160ff02191690831515021790555050565b60018060000160009054906101000a900473ffffffffffffffffffffffffffffffffffffffff16908060010160009054906101000a900473ffffffffffffffffffffffffffffffffffffffff16905082565b60036020528060005260406000206000915054906101000a900460ff1681565b610f2284848484600067ffffffffffffffff811115610eea57610ee9611fec565b5b6040519080825280601f01601f191660200182016040528015610f1c5781602001600182028036833780820191505090505b506110b8565b50505050565b6060610f858686868686600067ffffffffffffffff811115610f4d57610f4c611fec565b5b6040519080825280601f01601f191660200182016040528015610f7f5781602001600182028036833780820191505090505b50611272565b905095945050505050565b610fea84848484600067ffffffffffffffff811115610fb257610fb1611fec565b5b6040519080825280601f01601f191660200182016040528015610fe45781602001600182028036833780820191505090505b50611434565b50505050565b606061104d8686868686600067ffffffffffffffff81111561101557611014611fec565b5b6040519080825280601f01601f1916602001820160405280156110475781602001600182028036833780820191505090505b506115ee565b905095945050505050565b6110b284848484600067ffffffffffffffff81111561107a57611079611fec565b5b6040519080825280601f01601f1916602001820160405280156110ac5781602001600182028036833780820191505090505b506117b0565b50505050565b8460000160009054906101000a900473ffffffffffffffffffffffffffffffffffffffff1673ffffffffffffffffffffffffffffffffffffffff166339255d5b8660010160009054906101000a900473ffffffffffffffffffffffffffffffffffffffff168760010160009054906101000a900473ffffffffffffffffffffffffffffffffffffffff1673ffffffffffffffffffffffffffffffffffffffff166350209a62878988600067ffffffffffffffff81111561117b5761117a611fec565b5b6040519080825280601f01601f1916602001820160405280156111ad5781602001600182028036833780820191505090505b506040516024016111c194939291906120e4565b604051602081830303815290604052915060e01b6020820180517bffffffffffffffffffffffffffffffffffffffffffffffffffffffff8381831617835250505050846040518463ffffffff1660e01b815260040161122293929190612130565b6000604051808303816000875af1158015611241573d6000803e3d6000fd5b505050506040513d6000823e3d601f19601f8201168201806040525081019061126a919061226c565b505050505050565b60608660000160009054906101000a900473ffffffffffffffffffffffffffffffffffffffff1673ffffffffffffffffffffffffffffffffffffffff166339255d5b8860010160009054906101000a900473ffffffffffffffffffffffffffffffffffffffff168960010160009054906101000a900473ffffffffffffffffffffffffffffffffffffffff1673ffffffffffffffffffffffffffffffffffffffff1663354b9590888b8b8a600067ffffffffffffffff81111561133857611337611fec565b5b6040519080825280601f01601f19166020018201604052801561136a5781602001600182028036833780820191505090505b5060405160240161137f9594939291906122b5565b604051602081830303815290604052915060e01b6020820180517bffffffffffffffffffffffffffffffffffffffffffffffffffffffff8381831617835250505050856040518463ffffffff1660e01b81526004016113e093929190612130565b6000604051808303816000875af11580156113ff573d6000803e3d6000fd5b505050506040513d6000823e3d601f19601f82011682018060405250810190611428919061226c565b90509695505050505050565b8460000160009054906101000a900473ffffffffffffffffffffffffffffffffffffffff1673ffffffffffffffffffffffffffffffffffffffff166339255d5b8660010160009054906101000a900473ffffffffffffffffffffffffffffffffffffffff168760010160009054906101000a900473ffffffffffffffffffffffffffffffffffffffff1673ffffffffffffffffffffffffffffffffffffffff1663b4b333c6868989600067ffffffffffffffff8111156114f7576114f6611fec565b5b6040519080825280601f01601f1916602001820160405280156115295781602001600182028036833780820191505090505b5060405160240161153d949392919061230f565b604051602081830303815290604052915060e01b6020820180517bffffffffffffffffffffffffffffffffffffffffffffffffffffffff8381831617835250505050846040518463ffffffff1660e01b815260040161159e93929190612130565b6000604051808303816000875af11580156115bd573d6000803e3d6000fd5b505050506040513d6000823e3d601f19601f820116820180604052508101906115e6919061226c565b505050505050565b60608660000160009054906101000a900473ffffffffffffffffffffffffffffffffffffffff1673ffffffffffffffffffffffffffffffffffffffff166339255d5b8860010160009054906101000a900473ffffffffffffffffffffffffffffffffffffffff168960010160009054906101000a900473ffffffffffffffffffffffffffffffffffffffff1673ffffffffffffffffffffffffffffffffffffffff166394229ecb888b8b8a600067ffffffffffffffff8111156116b4576116b3611fec565b5b6040519080825280601f01601f1916602001820160405280156116e65781602001600182028036833780820191505090505b506040516024016116fb9594939291906122b5565b604051602081830303815290604052915060e01b6020820180517bffffffffffffffffffffffffffffffffffffffffffffffffffffffff8381831617835250505050856040518463ffffffff1660e01b815260040161175c93929190612130565b6000604051808303816000875af115801561177b573d6000803e3d6000fd5b505050506040513d6000823e3d601f19601f820116820180604052508101906117a4919061226c565b90509695505050505050565b8460000160009054906101000a900473ffffffffffffffffffffffffffffffffffffffff1673ffffffffffffffffffffffffffffffffffffffff166339255d5b8660010160009054906101000a900473ffffffffffffffffffffffffffffffffffffffff168760010160009054906101000a900473ffffffffffffffffffffffffffffffffffffffff1673ffffffffffffffffffffffffffffffffffffffff166362fc305e878988600067ffffffffffffffff81111561187357611872611fec565b5b6040519080825280601f01601f1916602001820160405280156118a55781602001600182028036833780820191505090505b506040516024016118b994939291906120e4565b604051602081830303815290604052915060e01b6020820180517bffffffffffffffffffffffffffffffffffffffffffffffffffffffff8381831617835250505050846040518463ffffffff1660e01b815260040161191a93929190612130565b6000604051808303816000875af1158015611939573d6000803e3d6000fd5b505050506040513d6000823e3d601f19601f82011682018060405250810190611962919061226c565b505050505050565b6000604051905090565b600080fd5b600080fd5b600073ffffffffffffffffffffffffffffffffffffffff82169050919050565b60006119a98261197e565b9050919050565b60006119bb8261199e565b9050919050565b6119cb816119b0565b81146119d657600080fd5b50565b6000813590506119e8816119c2565b92915050565b6119f78161199e565b8114611a0257600080fd5b50565b600081359050611a14816119ee565b92915050565b600081600b0b9050919050565b611a3081611a1a565b8114611a3b57600080fd5b50565b600081359050611a4d81611a27565b92915050565b600080600060608486031215611a6c57611a6b611974565b5b6000611a7a868287016119d9565b9350506020611a8b86828701611a05565b9250506040611a9c86828701611a3e565b9150509250925092565b6000611ab18261199e565b9050919050565b611ac181611aa6565b8114611acc57600080fd5b50565b600081359050611ade81611ab8565b92915050565b6000819050919050565b611af781611ae4565b8114611b0257600080fd5b50565b600081359050611b1481611aee565b92915050565b60008060408385031215611b3157611b30611974565b5b6000611b3f85828601611acf565b9250506020611b5085828601611b05565b9150509250929050565b60008060408385031215611b7157611b70611974565b5b6000611b7f858286016119d9565b9250506020611b9085828601611a3e565b9150509250929050565b600060208284031215611bb057611baf611974565b5b6000611bbe84828501611a05565b91505092915050565b600060208284031215611bdd57611bdc611974565b5b6000611beb848285016119d9565b91505092915050565b611bfd8161199e565b82525050565b6000602082019050611c186000830184611bf4565b92915050565b60008060408385031215611c3557611c34611974565b5b6000611c43858286016119d9565b9250506020611c5485828601611a05565b9150509250929050565b6000819050919050565b6000611c83611c7e611c798461197e565b611c5e565b61197e565b9050919050565b6000611c9582611c68565b9050919050565b6000611ca782611c8a565b9050919050565b611cb781611c9c565b82525050565b6000611cc882611c8a565b9050919050565b611cd881611cbd565b82525050565b6000604082019050611cf36000830185611cae565b611d006020830184611ccf565b9392505050565b60008115159050919050565b611d1c81611d07565b82525050565b6000602082019050611d376000830184611d13565b92915050565b600082825260208201905092915050565b7f6d75737420626520617574686f72697a65640000000000000000000000000000600082015250565b6000611d84601283611d3d565b9150611d8f82611d4e565b602082019050919050565b60006020820190508181036000830152611db381611d77565b9050919050565b611dc381611ae4565b82525050565b6000606082019050611dde6000830186611bf4565b611deb6020830185611bf4565b611df86040830184611dba565b949350505050565b611e0981611d07565b8114611e1457600080fd5b50565b600081519050611e2681611e00565b92915050565b600060208284031215611e4257611e41611974565b5b6000611e5084828501611e17565b91505092915050565b7f6f6e6c79206f776e65722063616e2077686974656c697374206163636f756e7460008201527f7300000000000000000000000000000000000000000000000000000000000000602082015250565b6000611eb5602183611d3d565b9150611ec082611e59565b604082019050919050565b60006020820190508181036000830152611ee481611ea8565b9050919050565b7f6f6e6c79206f776e65722063616e206368616e6765206f776e65727368697000600082015250565b6000611f21601f83611d3d565b9150611f2c82611eeb565b602082019050919050565b60006020820190508181036000830152611f5081611f14565b9050919050565b6000604082019050611f6c6000830185611bf4565b611f796020830184611dba565b9392505050565b7f6f6e6c79206f776e65722063616e2072656d6f7665206163636f756e74730000600082015250565b6000611fb6601e83611d3d565b9150611fc182611f80565b602082019050919050565b60006020820190508181036000830152611fe581611fa9565b9050919050565b7f4e487b7100000000000000000000000000000000000000000000000000000000600052604160045260246000fd5b600061202682611c8a565b9050919050565b6120368161201b565b82525050565b61204581611a1a565b82525050565b600081519050919050565b600082825260208201905092915050565b60005b8381101561208557808201518184015260208101905061206a565b83811115612094576000848401525b50505050565b6000601f19601f8301169050919050565b60006120b68261204b565b6120c08185612056565b93506120d0818560208601612067565b6120d98161209a565b840191505092915050565b60006080820190506120f9600083018761202d565b6121066020830186611bf4565b612113604083018561203c565b818103606083015261212581846120ab565b905095945050505050565b60006060820190506121456000830186611ccf565b818103602083015261215781856120ab565b9050818103604083015261216b81846120ab565b9050949350505050565b600080fd5b600080fd5b6121888261209a565b810181811067ffffffffffffffff821117156121a7576121a6611fec565b5b80604052505050565b60006121ba61196a565b90506121c6828261217f565b919050565b600067ffffffffffffffff8211156121e6576121e5611fec565b5b6121ef8261209a565b9050602081019050919050565b600061220f61220a846121cb565b6121b0565b90508281526020810184848401111561222b5761222a61217a565b5b612236848285612067565b509392505050565b600082601f83011261225357612252612175565b5b81516122638482602086016121fc565b91505092915050565b60006020828403121561228257612281611974565b5b600082015167ffffffffffffffff8111156122a05761229f611979565b5b6122ac8482850161223e565b91505092915050565b600060a0820190506122ca600083018861202d565b6122d76020830187611bf4565b6122e46040830186611bf4565b6122f1606083018561203c565b818103608083015261230381846120ab565b90509695505050505050565b6000608082019050612324600083018761202d565b6123316020830186611bf4565b61233e6040830185611bf4565b818103606083015261235081846120ab565b90509594505050505056fea264697066735822122014ed9f70563e6b59db4b93763d88505a5e4447fc8403a259836f3af16de17b4064736f6c634300080d0033",
  "linkReferences": {},
  "deployedLinkReferences": {}
}