{
  "_format": "hh-sol-artifact-1",
  "contractName": "CalendarFactory",
  "sourceName": "contracts/CalendarFactory.sol",
  "abi": [
    {
      "inputs": [
        {
          "internalType": "address",
          "name": "_owner",
          "type": "address"
        }
      ],
      "stateMutability": "nonpayable",
      "type": "constructor"
    },
    {
      "anonymous": false,
      "inputs": [
        {
          "indexed": false,
          "internalType": "address",
          "name": "userCalAddress",
          "type": "address"
        }
      ],
      "name": "UserCalCreated",
      "type": "event"
    },
    {
      "inputs": [],
      "name": "baseUserCalendar",
      "outputs": [
        {
          "internalType": "address",
          "name": "",
          "type": "address"
        }
      ],
      "stateMutability": "view",
      "type": "function"
    },
    {
      "inputs": [],
      "name": "communityTracker",
      "outputs": [
        {
          "internalType": "address",
          "name": "",
          "type": "address"
        }
      ],
      "stateMutability": "view",
      "type": "function"
    },
    {
      "inputs": [
        {
          "internalType": "string",
          "name": "userName",
          "type": "string"
        }
      ],
      "name": "createUserCal",
      "outputs": [],
      "stateMutability": "nonpayable",
      "type": "function"
    },
    {
      "inputs": [],
      "name": "getAllUserCalendarClones",
      "outputs": [
        {
          "internalType": "contract UserCalendar[]",
          "name": "",
          "type": "address[]"
        }
      ],
      "stateMutability": "view",
      "type": "function"
    },
    {
      "inputs": [
        {
          "internalType": "address",
          "name": "userEOA",
          "type": "address"
        }
      ],
      "name": "getUserCalendarClone",
      "outputs": [
        {
          "internalType": "address",
          "name": "userCalendar",
          "type": "address"
        }
      ],
      "stateMutability": "view",
      "type": "function"
    },
    {
      "inputs": [],
      "name": "owner",
      "outputs": [
        {
          "internalType": "address",
          "name": "",
          "type": "address"
        }
      ],
      "stateMutability": "view",
      "type": "function"
    },
    {
      "inputs": [
        {
          "internalType": "address",
          "name": "_baseUserCalendar",
          "type": "address"
        },
        {
          "internalType": "address",
          "name": "_communityTracker",
          "type": "address"
        }
      ],
      "name": "setBases",
      "outputs": [],
      "stateMutability": "nonpayable",
      "type": "function"
    },
    {
      "inputs": [
        {
          "internalType": "uint256",
          "name": "",
          "type": "uint256"
        }
      ],
      "name": "userCalendarsArray",
      "outputs": [
        {
          "internalType": "contract UserCalendar",
          "name": "",
          "type": "address"
        }
      ],
      "stateMutability": "view",
      "type": "function"
    }
  ],
  "bytecode": "0x608060405234801561001057600080fd5b50604051610d93380380610d93833981810160405281019061003291906100db565b806000806101000a81548173ffffffffffffffffffffffffffffffffffffffff021916908373ffffffffffffffffffffffffffffffffffffffff16021790555050610108565b600080fd5b600073ffffffffffffffffffffffffffffffffffffffff82169050919050565b60006100a88261007d565b9050919050565b6100b88161009d565b81146100c357600080fd5b50565b6000815190506100d5816100af565b92915050565b6000602082840312156100f1576100f0610078565b5b60006100ff848285016100c6565b91505092915050565b610c7c806101176000396000f3fe608060405234801561001057600080fd5b50600436106100885760003560e01c8063c82b2b7d1161005b578063c82b2b7d14610115578063cbcc285f14610131578063dee403cf1461014f578063f40517711461017f57610088565b80631876be5b1461008d57806344ea3191146100a95780638da5cb5b146100d95780639c0bbd11146100f7575b600080fd5b6100a760048036038101906100a29190610819565b61019d565b005b6100c360048036038101906100be91906108c0565b61039b565b6040516100d091906108fc565b60405180910390f35b6100e1610404565b6040516100ee91906108fc565b60405180910390f35b6100ff610428565b60405161010c91906108fc565b60405180910390f35b61012f600480360381019061012a9190610917565b61044e565b005b610139610562565b6040516101469190610a65565b60405180910390f35b61016960048036038101906101649190610abd565b6105f0565b6040516101769190610af9565b60405180910390f35b61018761062f565b60405161019491906108fc565b60405180910390f35b60006101ca600160009054906101000a900473ffffffffffffffffffffffffffffffffffffffff16610655565b90508073ffffffffffffffffffffffffffffffffffffffff166371f72fa083600260009054906101000a900473ffffffffffffffffffffffffffffffffffffffff16336040518463ffffffff1660e01b815260040161022b93929190610b9c565b600060405180830381600087803b15801561024557600080fd5b505af1158015610259573d6000803e3d6000fd5b5050505080600360003373ffffffffffffffffffffffffffffffffffffffff1673ffffffffffffffffffffffffffffffffffffffff16815260200190815260200160002060006101000a81548173ffffffffffffffffffffffffffffffffffffffff021916908373ffffffffffffffffffffffffffffffffffffffff1602179055506004819080600181540180825580915050600190039060005260206000200160009091909190916101000a81548173ffffffffffffffffffffffffffffffffffffffff021916908373ffffffffffffffffffffffffffffffffffffffff1602179055507f2e331d4795f636346ef54a83ee80f98ced695c2babf536b402562aeea48a3793600260009054906101000a900473ffffffffffffffffffffffffffffffffffffffff1660405161038f91906108fc565b60405180910390a15050565b6000600360008373ffffffffffffffffffffffffffffffffffffffff1673ffffffffffffffffffffffffffffffffffffffff16815260200190815260200160002060009054906101000a900473ffffffffffffffffffffffffffffffffffffffff169050919050565b60008054906101000a900473ffffffffffffffffffffffffffffffffffffffff1681565b600160009054906101000a900473ffffffffffffffffffffffffffffffffffffffff1681565b60008054906101000a900473ffffffffffffffffffffffffffffffffffffffff1673ffffffffffffffffffffffffffffffffffffffff163373ffffffffffffffffffffffffffffffffffffffff16146104dc576040517f08c379a00000000000000000000000000000000000000000000000000000000081526004016104d390610c26565b60405180910390fd5b81600160006101000a81548173ffffffffffffffffffffffffffffffffffffffff021916908373ffffffffffffffffffffffffffffffffffffffff16021790555080600260006101000a81548173ffffffffffffffffffffffffffffffffffffffff021916908373ffffffffffffffffffffffffffffffffffffffff1602179055505050565b606060048054806020026020016040519081016040528092919081815260200182805480156105e657602002820191906000526020600020905b8160009054906101000a900473ffffffffffffffffffffffffffffffffffffffff1673ffffffffffffffffffffffffffffffffffffffff168152602001906001019080831161059c575b5050505050905090565b6004818154811061060057600080fd5b906000526020600020016000915054906101000a900473ffffffffffffffffffffffffffffffffffffffff1681565b600260009054906101000a900473ffffffffffffffffffffffffffffffffffffffff1681565b6000808260601b90506040517f3d602d80600a3d3981f3363d3d373d3d3d363d7300000000000000000000000081528160148201527f5af43d82803e903d91602b57fd5bf3000000000000000000000000000000000060288201526037816000f092505050919050565b6000604051905090565b600080fd5b600080fd5b600080fd5b600080fd5b6000601f19601f8301169050919050565b7f4e487b7100000000000000000000000000000000000000000000000000000000600052604160045260246000fd5b610726826106dd565b810181811067ffffffffffffffff82111715610745576107446106ee565b5b80604052505050565b60006107586106bf565b9050610764828261071d565b919050565b600067ffffffffffffffff821115610784576107836106ee565b5b61078d826106dd565b9050602081019050919050565b82818337600083830152505050565b60006107bc6107b784610769565b61074e565b9050828152602081018484840111156107d8576107d76106d8565b5b6107e384828561079a565b509392505050565b600082601f830112610800576107ff6106d3565b5b81356108108482602086016107a9565b91505092915050565b60006020828403121561082f5761082e6106c9565b5b600082013567ffffffffffffffff81111561084d5761084c6106ce565b5b610859848285016107eb565b91505092915050565b600073ffffffffffffffffffffffffffffffffffffffff82169050919050565b600061088d82610862565b9050919050565b61089d81610882565b81146108a857600080fd5b50565b6000813590506108ba81610894565b92915050565b6000602082840312156108d6576108d56106c9565b5b60006108e4848285016108ab565b91505092915050565b6108f681610882565b82525050565b600060208201905061091160008301846108ed565b92915050565b6000806040838503121561092e5761092d6106c9565b5b600061093c858286016108ab565b925050602061094d858286016108ab565b9150509250929050565b600081519050919050565b600082825260208201905092915050565b6000819050602082019050919050565b6000819050919050565b60006109a86109a361099e84610862565b610983565b610862565b9050919050565b60006109ba8261098d565b9050919050565b60006109cc826109af565b9050919050565b6109dc816109c1565b82525050565b60006109ee83836109d3565b60208301905092915050565b6000602082019050919050565b6000610a1282610957565b610a1c8185610962565b9350610a2783610973565b8060005b83811015610a58578151610a3f88826109e2565b9750610a4a836109fa565b925050600181019050610a2b565b5085935050505092915050565b60006020820190508181036000830152610a7f8184610a07565b905092915050565b6000819050919050565b610a9a81610a87565b8114610aa557600080fd5b50565b600081359050610ab781610a91565b92915050565b600060208284031215610ad357610ad26106c9565b5b6000610ae184828501610aa8565b91505092915050565b610af3816109c1565b82525050565b6000602082019050610b0e6000830184610aea565b92915050565b600081519050919050565b600082825260208201905092915050565b60005b83811015610b4e578082015181840152602081019050610b33565b83811115610b5d576000848401525b50505050565b6000610b6e82610b14565b610b788185610b1f565b9350610b88818560208601610b30565b610b91816106dd565b840191505092915050565b60006060820190508181036000830152610bb68186610b63565b9050610bc560208301856108ed565b610bd260408301846108ed565b949350505050565b7f6f6e6c79206f776e65722066756e6374696f6e00000000000000000000000000600082015250565b6000610c10601383610b1f565b9150610c1b82610bda565b602082019050919050565b60006020820190508181036000830152610c3f81610c03565b905091905056fea26469706673582212209e53c26fb8065b34fdd57662b96cbcaf22ec2036a9a4e79f816674cb089fd85e64736f6c634300080d0033",
  "linkReferences": {},
  "deployedLinkReferences": {}
}