{
  "_format": "hh-sol-artifact-1",
  "contractName": "CalendarFactory",
  "sourceName": "contracts/CalendarFactory.sol",
  "abi": [
    {
      "inputs": [
        {
          "internalType": "address",
          "name": "_owner",
          "type": "address"
        }
      ],
      "stateMutability": "nonpayable",
      "type": "constructor"
    },
    {
      "anonymous": false,
      "inputs": [
        {
          "indexed": false,
          "internalType": "address",
          "name": "userCalAddress",
          "type": "address"
        }
      ],
      "name": "UserCalCreated",
      "type": "event"
    },
    {
      "inputs": [],
      "name": "baseUserCalendar",
      "outputs": [
        {
          "internalType": "address",
          "name": "",
          "type": "address"
        }
      ],
      "stateMutability": "view",
      "type": "function"
    },
    {
      "inputs": [],
      "name": "communityTracker",
      "outputs": [
        {
          "internalType": "address",
          "name": "",
          "type": "address"
        }
      ],
      "stateMutability": "view",
      "type": "function"
    },
    {
      "inputs": [
        {
          "internalType": "string",
          "name": "userName",
          "type": "string"
        }
      ],
      "name": "createUserCal",
      "outputs": [],
      "stateMutability": "nonpayable",
      "type": "function"
    },
    {
      "inputs": [],
      "name": "getAllUserCalendarClones",
      "outputs": [
        {
          "internalType": "contract UserCalendar[]",
          "name": "",
          "type": "address[]"
        }
      ],
      "stateMutability": "view",
      "type": "function"
    },
    {
      "inputs": [
        {
          "internalType": "address",
          "name": "user",
          "type": "address"
        }
      ],
      "name": "getUserCalendarClone",
      "outputs": [
        {
          "internalType": "address",
          "name": "userCalendar",
          "type": "address"
        }
      ],
      "stateMutability": "view",
      "type": "function"
    },
    {
      "inputs": [],
      "name": "owner",
      "outputs": [
        {
          "internalType": "address",
          "name": "",
          "type": "address"
        }
      ],
      "stateMutability": "view",
      "type": "function"
    },
    {
      "inputs": [
        {
          "internalType": "address",
          "name": "_baseUserCalendar",
          "type": "address"
        },
        {
          "internalType": "address",
          "name": "_communityTracker",
          "type": "address"
        }
      ],
      "name": "setBases",
      "outputs": [],
      "stateMutability": "nonpayable",
      "type": "function"
    },
    {
      "inputs": [
        {
          "internalType": "uint256",
          "name": "",
          "type": "uint256"
        }
      ],
      "name": "userCalendarsArray",
      "outputs": [
        {
          "internalType": "contract UserCalendar",
          "name": "",
          "type": "address"
        }
      ],
      "stateMutability": "view",
      "type": "function"
    }
  ],
  "bytecode": "0x608060405234801561001057600080fd5b50604051610d83380380610d83833981810160405281019061003291906100db565b806000806101000a81548173ffffffffffffffffffffffffffffffffffffffff021916908373ffffffffffffffffffffffffffffffffffffffff16021790555050610108565b600080fd5b600073ffffffffffffffffffffffffffffffffffffffff82169050919050565b60006100a88261007d565b9050919050565b6100b88161009d565b81146100c357600080fd5b50565b6000815190506100d5816100af565b92915050565b6000602082840312156100f1576100f0610078565b5b60006100ff848285016100c6565b91505092915050565b610c6c806101176000396000f3fe608060405234801561001057600080fd5b50600436106100885760003560e01c8063c82b2b7d1161005b578063c82b2b7d14610115578063cbcc285f14610131578063dee403cf1461014f578063f40517711461017f57610088565b80631876be5b1461008d57806344ea3191146100a95780638da5cb5b146100d95780639c0bbd11146100f7575b600080fd5b6100a760048036038101906100a29190610817565b61019d565b005b6100c360048036038101906100be91906108be565b610399565b6040516100d091906108fa565b60405180910390f35b6100e1610402565b6040516100ee91906108fa565b60405180910390f35b6100ff610426565b60405161010c91906108fa565b60405180910390f35b61012f600480360381019061012a9190610915565b61044c565b005b610139610560565b6040516101469190610a63565b60405180910390f35b61016960048036038101906101649190610abb565b6105ee565b6040516101769190610af7565b60405180910390f35b61018761062d565b60405161019491906108fa565b60405180910390f35b60006101ca600160009054906101000a900473ffffffffffffffffffffffffffffffffffffffff16610653565b90508073ffffffffffffffffffffffffffffffffffffffff1663de15954483600260009054906101000a900473ffffffffffffffffffffffffffffffffffffffff166040518363ffffffff1660e01b8152600401610229929190610b9a565b600060405180830381600087803b15801561024357600080fd5b505af1158015610257573d6000803e3d6000fd5b5050505080600360003373ffffffffffffffffffffffffffffffffffffffff1673ffffffffffffffffffffffffffffffffffffffff16815260200190815260200160002060006101000a81548173ffffffffffffffffffffffffffffffffffffffff021916908373ffffffffffffffffffffffffffffffffffffffff1602179055506004819080600181540180825580915050600190039060005260206000200160009091909190916101000a81548173ffffffffffffffffffffffffffffffffffffffff021916908373ffffffffffffffffffffffffffffffffffffffff1602179055507f2e331d4795f636346ef54a83ee80f98ced695c2babf536b402562aeea48a3793600260009054906101000a900473ffffffffffffffffffffffffffffffffffffffff1660405161038d91906108fa565b60405180910390a15050565b6000600360008373ffffffffffffffffffffffffffffffffffffffff1673ffffffffffffffffffffffffffffffffffffffff16815260200190815260200160002060009054906101000a900473ffffffffffffffffffffffffffffffffffffffff169050919050565b60008054906101000a900473ffffffffffffffffffffffffffffffffffffffff1681565b600160009054906101000a900473ffffffffffffffffffffffffffffffffffffffff1681565b60008054906101000a900473ffffffffffffffffffffffffffffffffffffffff1673ffffffffffffffffffffffffffffffffffffffff163373ffffffffffffffffffffffffffffffffffffffff16146104da576040517f08c379a00000000000000000000000000000000000000000000000000000000081526004016104d190610c16565b60405180910390fd5b81600160006101000a81548173ffffffffffffffffffffffffffffffffffffffff021916908373ffffffffffffffffffffffffffffffffffffffff16021790555080600260006101000a81548173ffffffffffffffffffffffffffffffffffffffff021916908373ffffffffffffffffffffffffffffffffffffffff1602179055505050565b606060048054806020026020016040519081016040528092919081815260200182805480156105e457602002820191906000526020600020905b8160009054906101000a900473ffffffffffffffffffffffffffffffffffffffff1673ffffffffffffffffffffffffffffffffffffffff168152602001906001019080831161059a575b5050505050905090565b600481815481106105fe57600080fd5b906000526020600020016000915054906101000a900473ffffffffffffffffffffffffffffffffffffffff1681565b600260009054906101000a900473ffffffffffffffffffffffffffffffffffffffff1681565b6000808260601b90506040517f3d602d80600a3d3981f3363d3d373d3d3d363d7300000000000000000000000081528160148201527f5af43d82803e903d91602b57fd5bf3000000000000000000000000000000000060288201526037816000f092505050919050565b6000604051905090565b600080fd5b600080fd5b600080fd5b600080fd5b6000601f19601f8301169050919050565b7f4e487b7100000000000000000000000000000000000000000000000000000000600052604160045260246000fd5b610724826106db565b810181811067ffffffffffffffff82111715610743576107426106ec565b5b80604052505050565b60006107566106bd565b9050610762828261071b565b919050565b600067ffffffffffffffff821115610782576107816106ec565b5b61078b826106db565b9050602081019050919050565b82818337600083830152505050565b60006107ba6107b584610767565b61074c565b9050828152602081018484840111156107d6576107d56106d6565b5b6107e1848285610798565b509392505050565b600082601f8301126107fe576107fd6106d1565b5b813561080e8482602086016107a7565b91505092915050565b60006020828403121561082d5761082c6106c7565b5b600082013567ffffffffffffffff81111561084b5761084a6106cc565b5b610857848285016107e9565b91505092915050565b600073ffffffffffffffffffffffffffffffffffffffff82169050919050565b600061088b82610860565b9050919050565b61089b81610880565b81146108a657600080fd5b50565b6000813590506108b881610892565b92915050565b6000602082840312156108d4576108d36106c7565b5b60006108e2848285016108a9565b91505092915050565b6108f481610880565b82525050565b600060208201905061090f60008301846108eb565b92915050565b6000806040838503121561092c5761092b6106c7565b5b600061093a858286016108a9565b925050602061094b858286016108a9565b9150509250929050565b600081519050919050565b600082825260208201905092915050565b6000819050602082019050919050565b6000819050919050565b60006109a66109a161099c84610860565b610981565b610860565b9050919050565b60006109b88261098b565b9050919050565b60006109ca826109ad565b9050919050565b6109da816109bf565b82525050565b60006109ec83836109d1565b60208301905092915050565b6000602082019050919050565b6000610a1082610955565b610a1a8185610960565b9350610a2583610971565b8060005b83811015610a56578151610a3d88826109e0565b9750610a48836109f8565b925050600181019050610a29565b5085935050505092915050565b60006020820190508181036000830152610a7d8184610a05565b905092915050565b6000819050919050565b610a9881610a85565b8114610aa357600080fd5b50565b600081359050610ab581610a8f565b92915050565b600060208284031215610ad157610ad06106c7565b5b6000610adf84828501610aa6565b91505092915050565b610af1816109bf565b82525050565b6000602082019050610b0c6000830184610ae8565b92915050565b600081519050919050565b600082825260208201905092915050565b60005b83811015610b4c578082015181840152602081019050610b31565b83811115610b5b576000848401525b50505050565b6000610b6c82610b12565b610b768185610b1d565b9350610b86818560208601610b2e565b610b8f816106db565b840191505092915050565b60006040820190508181036000830152610bb48185610b61565b9050610bc360208301846108eb565b9392505050565b7f6f6e6c79206f776e65722066756e6374696f6e00000000000000000000000000600082015250565b6000610c00601383610b1d565b9150610c0b82610bca565b602082019050919050565b60006020820190508181036000830152610c2f81610bf3565b905091905056fea2646970667358221220a76f318fed97d87755721dd3e5f56f57b5177068e68fb9326070f69fe7763e5a64736f6c63430008090033",
  "linkReferences": {},
  "deployedLinkReferences": {}
}