{
  "_format": "hh-sol-artifact-1",
  "contractName": "UserCalendar",
  "sourceName": "contracts/UserCalendar.sol",
  "abi": [
    {
      "inputs": [],
      "name": "appointmentId",
      "outputs": [
        {
          "internalType": "uint256",
          "name": "",
          "type": "uint256"
        }
      ],
      "stateMutability": "view",
      "type": "function"
    },
    {
      "inputs": [
        {
          "internalType": "uint256",
          "name": "",
          "type": "uint256"
        },
        {
          "internalType": "uint256",
          "name": "",
          "type": "uint256"
        }
      ],
      "name": "appointments",
      "outputs": [
        {
          "internalType": "bool",
          "name": "",
          "type": "bool"
        }
      ],
      "stateMutability": "view",
      "type": "function"
    },
    {
      "inputs": [
        {
          "internalType": "uint256",
          "name": "",
          "type": "uint256"
        }
      ],
      "name": "appointmentsArray",
      "outputs": [
        {
          "internalType": "uint256",
          "name": "id",
          "type": "uint256"
        },
        {
          "internalType": "string",
          "name": "title",
          "type": "string"
        },
        {
          "internalType": "address",
          "name": "attendee",
          "type": "address"
        },
        {
          "internalType": "uint256",
          "name": "date",
          "type": "uint256"
        },
        {
          "internalType": "uint256",
          "name": "day",
          "type": "uint256"
        },
        {
          "internalType": "uint256",
          "name": "startTime",
          "type": "uint256"
        },
        {
          "internalType": "uint256",
          "name": "duration",
          "type": "uint256"
        },
        {
          "internalType": "uint256",
          "name": "payRate",
          "type": "uint256"
        }
      ],
      "stateMutability": "view",
      "type": "function"
    },
    {
      "inputs": [
        {
          "internalType": "uint256",
          "name": "",
          "type": "uint256"
        },
        {
          "internalType": "uint256",
          "name": "",
          "type": "uint256"
        }
      ],
      "name": "availability",
      "outputs": [
        {
          "internalType": "bool",
          "name": "",
          "type": "bool"
        }
      ],
      "stateMutability": "view",
      "type": "function"
    },
    {
      "inputs": [
        {
          "internalType": "uint256",
          "name": "",
          "type": "uint256"
        },
        {
          "internalType": "uint256",
          "name": "",
          "type": "uint256"
        }
      ],
      "name": "availabilityArray",
      "outputs": [
        {
          "internalType": "uint256",
          "name": "",
          "type": "uint256"
        }
      ],
      "stateMutability": "view",
      "type": "function"
    },
    {
      "inputs": [
        {
          "internalType": "string",
          "name": "_title",
          "type": "string"
        },
        {
          "internalType": "uint256",
          "name": "_date",
          "type": "uint256"
        },
        {
          "internalType": "uint256",
          "name": "_day",
          "type": "uint256"
        },
        {
          "internalType": "address",
          "name": "_attendee",
          "type": "address"
        },
        {
          "internalType": "uint256",
          "name": "_startTime",
          "type": "uint256"
        },
        {
          "internalType": "uint256",
          "name": "_duration",
          "type": "uint256"
        }
      ],
      "name": "createAppointment",
      "outputs": [],
      "stateMutability": "nonpayable",
      "type": "function"
    },
    {
      "inputs": [
        {
          "internalType": "uint256",
          "name": "_rate",
          "type": "uint256"
        }
      ],
      "name": "createRate",
      "outputs": [],
      "stateMutability": "nonpayable",
      "type": "function"
    },
    {
      "inputs": [
        {
          "internalType": "uint256",
          "name": "_utc",
          "type": "uint256"
        }
      ],
      "name": "createUtc",
      "outputs": [],
      "stateMutability": "nonpayable",
      "type": "function"
    },
    {
      "inputs": [],
      "name": "currentTime",
      "outputs": [
        {
          "internalType": "uint256",
          "name": "",
          "type": "uint256"
        }
      ],
      "stateMutability": "view",
      "type": "function"
    },
    {
      "inputs": [
        {
          "internalType": "uint256",
          "name": "_appointmentId",
          "type": "uint256"
        }
      ],
      "name": "deleteAppointment",
      "outputs": [],
      "stateMutability": "nonpayable",
      "type": "function"
    },
    {
      "inputs": [
        {
          "internalType": "uint256",
          "name": "_day",
          "type": "uint256"
        },
        {
          "internalType": "uint256",
          "name": "_startTime",
          "type": "uint256"
        },
        {
          "internalType": "uint256",
          "name": "_endTime",
          "type": "uint256"
        }
      ],
      "name": "deleteAvailability",
      "outputs": [],
      "stateMutability": "nonpayable",
      "type": "function"
    },
    {
      "inputs": [],
      "name": "getRate",
      "outputs": [
        {
          "internalType": "uint256",
          "name": "",
          "type": "uint256"
        }
      ],
      "stateMutability": "view",
      "type": "function"
    },
    {
      "inputs": [],
      "name": "getUtc",
      "outputs": [
        {
          "internalType": "uint256",
          "name": "",
          "type": "uint256"
        }
      ],
      "stateMutability": "view",
      "type": "function"
    },
    {
      "inputs": [
        {
          "internalType": "string",
          "name": "userName",
          "type": "string"
        },
        {
          "internalType": "address",
          "name": "communityTracker",
          "type": "address"
        }
      ],
      "name": "init",
      "outputs": [],
      "stateMutability": "nonpayable",
      "type": "function"
    },
    {
      "inputs": [],
      "name": "name",
      "outputs": [
        {
          "internalType": "string",
          "name": "",
          "type": "string"
        }
      ],
      "stateMutability": "view",
      "type": "function"
    },
    {
      "inputs": [],
      "name": "owner",
      "outputs": [
        {
          "internalType": "address",
          "name": "",
          "type": "address"
        }
      ],
      "stateMutability": "view",
      "type": "function"
    },
    {
      "inputs": [],
      "name": "rate",
      "outputs": [
        {
          "internalType": "uint256",
          "name": "",
          "type": "uint256"
        }
      ],
      "stateMutability": "view",
      "type": "function"
    },
    {
      "inputs": [],
      "name": "readAppointments",
      "outputs": [
        {
          "components": [
            {
              "internalType": "uint256",
              "name": "id",
              "type": "uint256"
            },
            {
              "internalType": "string",
              "name": "title",
              "type": "string"
            },
            {
              "internalType": "address",
              "name": "attendee",
              "type": "address"
            },
            {
              "internalType": "uint256",
              "name": "date",
              "type": "uint256"
            },
            {
              "internalType": "uint256",
              "name": "day",
              "type": "uint256"
            },
            {
              "internalType": "uint256",
              "name": "startTime",
              "type": "uint256"
            },
            {
              "internalType": "uint256",
              "name": "duration",
              "type": "uint256"
            },
            {
              "internalType": "uint256",
              "name": "payRate",
              "type": "uint256"
            }
          ],
          "internalType": "struct UserCalendar.Appointment[]",
          "name": "",
          "type": "tuple[]"
        }
      ],
      "stateMutability": "view",
      "type": "function"
    },
    {
      "inputs": [],
      "name": "readAvailability",
      "outputs": [
        {
          "internalType": "uint256[7][96]",
          "name": "",
          "type": "uint256[7][96]"
        }
      ],
      "stateMutability": "view",
      "type": "function"
    },
    {
      "inputs": [
        {
          "internalType": "uint256",
          "name": "_day",
          "type": "uint256"
        },
        {
          "internalType": "uint256",
          "name": "_startTime",
          "type": "uint256"
        },
        {
          "internalType": "uint256",
          "name": "_endTime",
          "type": "uint256"
        }
      ],
      "name": "setAvailability",
      "outputs": [],
      "stateMutability": "nonpayable",
      "type": "function"
    },
    {
      "inputs": [],
      "name": "sortAppointments",
      "outputs": [],
      "stateMutability": "nonpayable",
      "type": "function"
    },
    {
      "inputs": [],
      "name": "utc",
      "outputs": [
        {
          "internalType": "uint256",
          "name": "",
          "type": "uint256"
        }
      ],
      "stateMutability": "view",
      "type": "function"
    }
  ],
  "bytecode": "0x6080604052600160025534801561001557600080fd5b50612bf5806100256000396000f3fe608060405234801561001057600080fd5b50600436106101425760003560e01c80639358f3cd116100b8578063bfc3a2f21161007c578063bfc3a2f214610346578063cd9b33ee14610364578063cfa0811414610394578063d18e81b3146103b2578063de159544146103d0578063e45bc178146103ec57610142565b80639358f3cd146102a2578063a299a459146102d2578063a2ccd69f146102ee578063b4fa6b7a1461030c578063b733df811461032a57610142565b80632bc513591161010a5780632bc51359146101eb5780632c4e722e146102225780634693181514610240578063484168dd1461025c578063679aefce146102665780638da5cb5b1461028457610142565b806306fdde03146101475780630c29aeb1146101655780630f66cd6614610183578063145bd8181461019f5780631ae5970e146101cf575b600080fd5b61014f610408565b60405161015c9190611ebf565b60405180910390f35b61016d610496565b60405161017a9190611efa565b60405180910390f35b61019d600480360381019061019891906120e8565b61049f565b005b6101b960048036038101906101b49190612191565b610832565b6040516101c69190611efa565b60405180910390f35b6101e960048036038101906101e491906121d1565b610860565b005b610205600480360381019061020091906121d1565b6108fa565b60405161021998979695949392919061220d565b60405180910390f35b61022a6109fa565b6040516102379190611efa565b60405180910390f35b61025a600480360381019061025591906121d1565b610a00565b005b610264610c25565b005b61026e611411565b60405161027b9190611efa565b60405180910390f35b61028c61141b565b6040516102999190612292565b60405180910390f35b6102bc60048036038101906102b79190612191565b611441565b6040516102c991906122c8565b60405180910390f35b6102ec60048036038101906102e791906122e3565b611470565b005b6102f661167c565b6040516103039190611efa565b60405180910390f35b610314611682565b6040516103219190611efa565b60405180910390f35b610344600480360381019061033f91906121d1565b611688565b005b61034e611722565b60405161035b9190612510565b60405180910390f35b61037e60048036038101906103799190612191565b6118a6565b60405161038b91906122c8565b60405180910390f35b61039c6118d5565b6040516103a9919061266a565b60405180910390f35b6103ba611958565b6040516103c79190611efa565b60405180910390f35b6103ea60048036038101906103e59190612686565b611984565b005b610406600480360381019061040191906122e3565b611a88565b005b6004805461041590612711565b80601f016020809104026020016040519081016040528092919081815260200182805461044190612711565b801561048e5780601f106104635761010080835404028352916020019161048e565b820191906000526020600020905b81548152906001019060200180831161047157829003601f168201915b505050505081565b60008054905090565b600084101580156104b1575060068411155b6104f0576040517f08c379a00000000000000000000000000000000000000000000000000000000081526004016104e79061278f565b60405180910390fd5b60005b8181101561062357600160098660608110610511576105106127af565b5b60070201601983610522919061280d565b8561052d9190612867565b6007811061053e5761053d6127af565b5b015414610580576040517f08c379a00000000000000000000000000000000000000000000000000000000081526004016105779061292f565b60405180910390fd5b600115156007600088815260200190815260200160002060006019846105a6919061280d565b866105b19190612867565b815260200190815260200160002060009054906101000a900460ff1615151415610610576040517f08c379a0000000000000000000000000000000000000000000000000000000008152600401610607906129c1565b60405180910390fd5b808061061b906129e1565b9150506104f3565b5061062c611c0b565b600254816000018181525050868160200181905250858160600181815250508481608001818152505083816040019073ffffffffffffffffffffffffffffffffffffffff16908173ffffffffffffffffffffffffffffffffffffffff1681525050828160a0018181525050818160c00181815250506001548160e0018181525050600160076000888152602001908152602001600020600085815260200190815260200160002060006101000a81548160ff02191690831515021790555060005b8281101561074557600160076000898152602001908152602001600020600083815260200190815260200160002060006101000a81548160ff021916908315150217905550808061073d906129e1565b9150506106ed565b506008819080600181540180825580915050600190039060005260206000209060080201600090919091909150600082015181600001556020820151816001019080519060200190610798929190611c66565b5060408201518160020160006101000a81548173ffffffffffffffffffffffffffffffffffffffff021916908373ffffffffffffffffffffffffffffffffffffffff160217905550606082015181600301556080820151816004015560a0820151816005015560c0820151816006015560e08201518160070155505060016002546108239190612867565b60028190555050505050505050565b6009826060811061084257600080fd5b60070201816007811061085457600080fd5b01600091509150505481565b600360009054906101000a900473ffffffffffffffffffffffffffffffffffffffff1673ffffffffffffffffffffffffffffffffffffffff163373ffffffffffffffffffffffffffffffffffffffff16146108f0576040517f08c379a00000000000000000000000000000000000000000000000000000000081526004016108e790612a76565b60405180910390fd5b8060018190555050565b6008818154811061090a57600080fd5b906000526020600020906008020160009150905080600001549080600101805461093390612711565b80601f016020809104026020016040519081016040528092919081815260200182805461095f90612711565b80156109ac5780601f10610981576101008083540402835291602001916109ac565b820191906000526020600020905b81548152906001019060200180831161098f57829003601f168201915b5050505050908060020160009054906101000a900473ffffffffffffffffffffffffffffffffffffffff16908060030154908060040154908060050154908060060154908060070154905088565b60015481565b600360009054906101000a900473ffffffffffffffffffffffffffffffffffffffff1673ffffffffffffffffffffffffffffffffffffffff163373ffffffffffffffffffffffffffffffffffffffff1614610a90576040517f08c379a0000000000000000000000000000000000000000000000000000000008152600401610a8790612a76565b60405180910390fd5b6000600182610a9f9190612a96565b9050600060088281548110610ab757610ab66127af565b5b9060005260206000209060080201600301549050600060088381548110610ae157610ae06127af565b5b9060005260206000209060080201600501549050600060088481548110610b0b57610b0a6127af565b5b906000526020600020906008020160060154905060005b81811015610b91576000600760008681526020019081526020016000206000601984610b4e919061280d565b86610b599190612867565b815260200190815260200160002060006101000a81548160ff0219169083151502179055508080610b89906129e1565b915050610b22565b5060088481548110610ba657610ba56127af565b5b9060005260206000209060080201600080820160009055600182016000610bcd9190611cec565b6002820160006101000a81549073ffffffffffffffffffffffffffffffffffffffff02191690556003820160009055600482016000905560058201600090556006820160009055600782016000905550505050505050565b6000600190505b801561140e576000905060005b6001600880549050610c4b9190612a96565b811015611408576008600182610c619190612867565b81548110610c7257610c716127af565b5b90600052602060002090600802016003015460088281548110610c9857610c976127af565b5b9060005260206000209060080201600301541115610ff457600060088281548110610cc657610cc56127af565b5b90600052602060002090600802016040518061010001604052908160008201548152602001600182018054610cfa90612711565b80601f0160208091040260200160405190810160405280929190818152602001828054610d2690612711565b8015610d735780601f10610d4857610100808354040283529160200191610d73565b820191906000526020600020905b815481529060010190602001808311610d5657829003601f168201915b505050505081526020016002820160009054906101000a900473ffffffffffffffffffffffffffffffffffffffff1673ffffffffffffffffffffffffffffffffffffffff1673ffffffffffffffffffffffffffffffffffffffff1681526020016003820154815260200160048201548152602001600582015481526020016006820154815260200160078201548152505090506008600183610e159190612867565b81548110610e2657610e256127af565b5b906000526020600020906008020160088381548110610e4857610e476127af565b5b9060005260206000209060080201600082015481600001556001820181600101908054610e7490612711565b610e7f929190611d2c565b506002820160009054906101000a900473ffffffffffffffffffffffffffffffffffffffff168160020160006101000a81548173ffffffffffffffffffffffffffffffffffffffff021916908373ffffffffffffffffffffffffffffffffffffffff1602179055506003820154816003015560048201548160040155600582015481600501556006820154816006015560078201548160070155905050806008600184610f2c9190612867565b81548110610f3d57610f3c6127af565b5b9060005260206000209060080201600082015181600001556020820151816001019080519060200190610f71929190611c66565b5060408201518160020160006101000a81548173ffffffffffffffffffffffffffffffffffffffff021916908373ffffffffffffffffffffffffffffffffffffffff160217905550606082015181600301556080820151816004015560a0820151816005015560c0820151816006015560e0820151816007015590505060019250505b60086001826110039190612867565b81548110611014576110136127af565b5b9060005260206000209060080201600301546008828154811061103a576110396127af565b5b90600052602060002090600802016003015414156113f55760086001826110619190612867565b81548110611072576110716127af565b5b90600052602060002090600802016005015460088281548110611098576110976127af565b5b90600052602060002090600802016005015411156113f4576000600882815481106110c6576110c56127af565b5b906000526020600020906008020160405180610100016040529081600082015481526020016001820180546110fa90612711565b80601f016020809104026020016040519081016040528092919081815260200182805461112690612711565b80156111735780601f1061114857610100808354040283529160200191611173565b820191906000526020600020905b81548152906001019060200180831161115657829003601f168201915b505050505081526020016002820160009054906101000a900473ffffffffffffffffffffffffffffffffffffffff1673ffffffffffffffffffffffffffffffffffffffff1673ffffffffffffffffffffffffffffffffffffffff16815260200160038201548152602001600482015481526020016005820154815260200160068201548152602001600782015481525050905060086001836112159190612867565b81548110611226576112256127af565b5b906000526020600020906008020160088381548110611248576112476127af565b5b906000526020600020906008020160008201548160000155600182018160010190805461127490612711565b61127f929190611d2c565b506002820160009054906101000a900473ffffffffffffffffffffffffffffffffffffffff168160020160006101000a81548173ffffffffffffffffffffffffffffffffffffffff021916908373ffffffffffffffffffffffffffffffffffffffff160217905550600382015481600301556004820154816004015560058201548160050155600682015481600601556007820154816007015590505080600860018461132c9190612867565b8154811061133d5761133c6127af565b5b9060005260206000209060080201600082015181600001556020820151816001019080519060200190611371929190611c66565b5060408201518160020160006101000a81548173ffffffffffffffffffffffffffffffffffffffff021916908373ffffffffffffffffffffffffffffffffffffffff160217905550606082015181600301556080820151816004015560a0820151816005015560c0820151816006015560e0820151816007015590505060019250505b5b8080611400906129e1565b915050610c39565b50610c2c565b50565b6000600154905090565b600360009054906101000a900473ffffffffffffffffffffffffffffffffffffffff1681565b60066020528160005260406000206020528060005260406000206000915091509054906101000a900460ff1681565b600360009054906101000a900473ffffffffffffffffffffffffffffffffffffffff1673ffffffffffffffffffffffffffffffffffffffff163373ffffffffffffffffffffffffffffffffffffffff1614611500576040517f08c379a00000000000000000000000000000000000000000000000000000000081526004016114f790612a76565b60405180910390fd5b60008310158015611512575060068311155b611551576040517f08c379a00000000000000000000000000000000000000000000000000000000081526004016115489061278f565b60405180910390fd5b6000821015611595576040517f08c379a000000000000000000000000000000000000000000000000000000000815260040161158c90612b16565b60405180910390fd5b6109298111156115da576040517f08c379a00000000000000000000000000000000000000000000000000000000081526004016115d190612b16565b60405180910390fd5b60008290505b8181101561167657600160066000868152602001908152602001600020600083815260200190815260200160002060006101000a81548160ff02191690831515021790555060016009856060811061163b5761163a6127af565b5b60070201600f8361164c9190612b65565b6007811061165d5761165c6127af565b5b0181905550600f8161166f9190612867565b90506115e0565b50505050565b60025481565b60005481565b600360009054906101000a900473ffffffffffffffffffffffffffffffffffffffff1673ffffffffffffffffffffffffffffffffffffffff163373ffffffffffffffffffffffffffffffffffffffff1614611718576040517f08c379a000000000000000000000000000000000000000000000000000000000815260040161170f90612a76565b60405180910390fd5b8060008190555050565b60606008805480602002602001604051908101604052809291908181526020016000905b8282101561189d5783829060005260206000209060080201604051806101000160405290816000820154815260200160018201805461178490612711565b80601f01602080910402602001604051908101604052809291908181526020018280546117b090612711565b80156117fd5780601f106117d2576101008083540402835291602001916117fd565b820191906000526020600020905b8154815290600101906020018083116117e057829003601f168201915b505050505081526020016002820160009054906101000a900473ffffffffffffffffffffffffffffffffffffffff1673ffffffffffffffffffffffffffffffffffffffff1673ffffffffffffffffffffffffffffffffffffffff1681526020016003820154815260200160048201548152602001600582015481526020016006820154815260200160078201548152505081526020019060010190611746565b50505050905090565b60076020528160005260406000206020528060005260406000206000915091509054906101000a900460ff1681565b6118dd611db9565b6009606080602002604051908101604052809291906000905b8282101561194f5783826007020160078060200260405190810160405280929190826007801561193b576020028201915b815481526020019060010190808311611927575b5050505050815260200190600101906118f6565b50505050905090565b6000603c8060005461196a919061280d565b611974919061280d565b4261197f9190612867565b905090565b60001515600560009054906101000a900460ff161515146119a457600080fd5b33600360006101000a81548173ffffffffffffffffffffffffffffffffffffffff021916908373ffffffffffffffffffffffffffffffffffffffff16021790555081600490805190602001906119fb929190611c66565b508073ffffffffffffffffffffffffffffffffffffffff166329361a7133306040518363ffffffff1660e01b8152600401611a37929190612b96565b600060405180830381600087803b158015611a5157600080fd5b505af1158015611a65573d6000803e3d6000fd5b505050506001600560006101000a81548160ff0219169083151502179055505050565b600360009054906101000a900473ffffffffffffffffffffffffffffffffffffffff1673ffffffffffffffffffffffffffffffffffffffff163373ffffffffffffffffffffffffffffffffffffffff1614611b18576040517f08c379a0000000000000000000000000000000000000000000000000000000008152600401611b0f90612a76565b60405180910390fd5b60008310158015611b2a575060068311155b611b69576040517f08c379a0000000000000000000000000000000000000000000000000000000008152600401611b609061278f565b60405180910390fd5b60008290505b81811015611c0557600060066000868152602001908152602001600020600083815260200190815260200160002060006101000a81548160ff021916908315150217905550600060098560608110611bca57611bc96127af565b5b60070201600f83611bdb9190612b65565b60078110611bec57611beb6127af565b5b0181905550600f81611bfe9190612867565b9050611b6f565b50505050565b6040518061010001604052806000815260200160608152602001600073ffffffffffffffffffffffffffffffffffffffff16815260200160008152602001600081526020016000815260200160008152602001600081525090565b828054611c7290612711565b90600052602060002090601f016020900481019282611c945760008555611cdb565b82601f10611cad57805160ff1916838001178555611cdb565b82800160010185558215611cdb579182015b82811115611cda578251825591602001919060010190611cbf565b5b509050611ce89190611de7565b5090565b508054611cf890612711565b6000825580601f10611d0a5750611d29565b601f016020900490600052602060002090810190611d289190611de7565b5b50565b828054611d3890612711565b90600052602060002090601f016020900481019282611d5a5760008555611da8565b82601f10611d6b5780548555611da8565b82800160010185558215611da857600052602060002091601f016020900482015b82811115611da7578254825591600101919060010190611d8c565b5b509050611db59190611de7565b5090565b60405180610c0001604052806060905b611dd1611e04565b815260200190600190039081611dc95790505090565b5b80821115611e00576000816000905550600101611de8565b5090565b6040518060e00160405280600790602082028036833780820191505090505090565b600081519050919050565b600082825260208201905092915050565b60005b83811015611e60578082015181840152602081019050611e45565b83811115611e6f576000848401525b50505050565b6000601f19601f8301169050919050565b6000611e9182611e26565b611e9b8185611e31565b9350611eab818560208601611e42565b611eb481611e75565b840191505092915050565b60006020820190508181036000830152611ed98184611e86565b905092915050565b6000819050919050565b611ef481611ee1565b82525050565b6000602082019050611f0f6000830184611eeb565b92915050565b6000604051905090565b600080fd5b600080fd5b600080fd5b600080fd5b7f4e487b7100000000000000000000000000000000000000000000000000000000600052604160045260246000fd5b611f6b82611e75565b810181811067ffffffffffffffff82111715611f8a57611f89611f33565b5b80604052505050565b6000611f9d611f15565b9050611fa98282611f62565b919050565b600067ffffffffffffffff821115611fc957611fc8611f33565b5b611fd282611e75565b9050602081019050919050565b82818337600083830152505050565b6000612001611ffc84611fae565b611f93565b90508281526020810184848401111561201d5761201c611f2e565b5b612028848285611fdf565b509392505050565b600082601f83011261204557612044611f29565b5b8135612055848260208601611fee565b91505092915050565b61206781611ee1565b811461207257600080fd5b50565b6000813590506120848161205e565b92915050565b600073ffffffffffffffffffffffffffffffffffffffff82169050919050565b60006120b58261208a565b9050919050565b6120c5816120aa565b81146120d057600080fd5b50565b6000813590506120e2816120bc565b92915050565b60008060008060008060c0878903121561210557612104611f1f565b5b600087013567ffffffffffffffff81111561212357612122611f24565b5b61212f89828a01612030565b965050602061214089828a01612075565b955050604061215189828a01612075565b945050606061216289828a016120d3565b935050608061217389828a01612075565b92505060a061218489828a01612075565b9150509295509295509295565b600080604083850312156121a8576121a7611f1f565b5b60006121b685828601612075565b92505060206121c785828601612075565b9150509250929050565b6000602082840312156121e7576121e6611f1f565b5b60006121f584828501612075565b91505092915050565b612207816120aa565b82525050565b600061010082019050612223600083018b611eeb565b8181036020830152612235818a611e86565b905061224460408301896121fe565b6122516060830188611eeb565b61225e6080830187611eeb565b61226b60a0830186611eeb565b61227860c0830185611eeb565b61228560e0830184611eeb565b9998505050505050505050565b60006020820190506122a760008301846121fe565b92915050565b60008115159050919050565b6122c2816122ad565b82525050565b60006020820190506122dd60008301846122b9565b92915050565b6000806000606084860312156122fc576122fb611f1f565b5b600061230a86828701612075565b935050602061231b86828701612075565b925050604061232c86828701612075565b9150509250925092565b600081519050919050565b600082825260208201905092915050565b6000819050602082019050919050565b61236b81611ee1565b82525050565b600082825260208201905092915050565b600061238d82611e26565b6123978185612371565b93506123a7818560208601611e42565b6123b081611e75565b840191505092915050565b6123c4816120aa565b82525050565b6000610100830160008301516123e36000860182612362565b50602083015184820360208601526123fb8282612382565b915050604083015161241060408601826123bb565b5060608301516124236060860182612362565b5060808301516124366080860182612362565b5060a083015161244960a0860182612362565b5060c083015161245c60c0860182612362565b5060e083015161246f60e0860182612362565b508091505092915050565b600061248683836123ca565b905092915050565b6000602082019050919050565b60006124a682612336565b6124b08185612341565b9350836020820285016124c285612352565b8060005b858110156124fe57848403895281516124df858261247a565b94506124ea8361248e565b925060208a019950506001810190506124c6565b50829750879550505050505092915050565b6000602082019050818103600083015261252a818461249b565b905092915050565b600060609050919050565b600081905092915050565b6000819050919050565b600060079050919050565b600081905092915050565b6000819050919050565b600061257e8383612362565b60208301905092915050565b6000602082019050919050565b6125a081612552565b6125aa818461255d565b92506125b582612568565b8060005b838110156125e65781516125cd8782612572565b96506125d88361258a565b9250506001810190506125b9565b505050505050565b60006125fa8383612597565b60e08301905092915050565b6000602082019050919050565b61261c81612532565b612626818461253d565b925061263182612548565b8060005b8381101561266257815161264987826125ee565b965061265483612606565b925050600181019050612635565b505050505050565b6000615400820190506126806000830184612613565b92915050565b6000806040838503121561269d5761269c611f1f565b5b600083013567ffffffffffffffff8111156126bb576126ba611f24565b5b6126c785828601612030565b92505060206126d8858286016120d3565b9150509250929050565b7f4e487b7100000000000000000000000000000000000000000000000000000000600052602260045260246000fd5b6000600282049050600182168061272957607f821691505b6020821081141561273d5761273c6126e2565b5b50919050565b7f64617920697320696e76616c6964000000000000000000000000000000000000600082015250565b6000612779600e83611e31565b915061278482612743565b602082019050919050565b600060208201905081810360008301526127a88161276c565b9050919050565b7f4e487b7100000000000000000000000000000000000000000000000000000000600052603260045260246000fd5b7f4e487b7100000000000000000000000000000000000000000000000000000000600052601160045260246000fd5b600061281882611ee1565b915061282383611ee1565b9250817fffffffffffffffffffffffffffffffffffffffffffffffffffffffffffffffff048311821515161561285c5761285b6127de565b5b828202905092915050565b600061287282611ee1565b915061287d83611ee1565b9250827fffffffffffffffffffffffffffffffffffffffffffffffffffffffffffffffff038211156128b2576128b16127de565b5b828201905092915050565b7f6170706f696e746d656e7420646174652f74696d65206973206f75747369646560008201527f206f6620617661696c6162696c69747900000000000000000000000000000000602082015250565b6000612919603083611e31565b9150612924826128bd565b604082019050919050565b600060208201905081810360008301526129488161290c565b9050919050565b7f6170706f696e746d656e7420646174652f74696d65206973206e6f742061766160008201527f696c61626c650000000000000000000000000000000000000000000000000000602082015250565b60006129ab602683611e31565b91506129b68261294f565b604082019050919050565b600060208201905081810360008301526129da8161299e565b9050919050565b60006129ec82611ee1565b91507fffffffffffffffffffffffffffffffffffffffffffffffffffffffffffffffff821415612a1f57612a1e6127de565b5b600182019050919050565b7f6f6e6c79206f776e65722066756e6374696f6e00000000000000000000000000600082015250565b6000612a60601383611e31565b9150612a6b82612a2a565b602082019050919050565b60006020820190508181036000830152612a8f81612a53565b9050919050565b6000612aa182611ee1565b9150612aac83611ee1565b925082821015612abf57612abe6127de565b5b828203905092915050565b7f73746172742074696d6520697320696e76616c69640000000000000000000000600082015250565b6000612b00601583611e31565b9150612b0b82612aca565b602082019050919050565b60006020820190508181036000830152612b2f81612af3565b9050919050565b7f4e487b7100000000000000000000000000000000000000000000000000000000600052601260045260246000fd5b6000612b7082611ee1565b9150612b7b83611ee1565b925082612b8b57612b8a612b36565b5b828204905092915050565b6000604082019050612bab60008301856121fe565b612bb860208301846121fe565b939250505056fea2646970667358221220778aeb82090f5fa4308db8e70d80ae2634ca6af7615eda186937fa18c877a8e264736f6c63430008090033",
  "linkReferences": {},
  "deployedLinkReferences": {}
}