{
  "_format": "hh-sol-artifact-1",
  "contractName": "UserCalendar",
  "sourceName": "contracts/UserCalendar.sol",
  "abi": [
    {
      "inputs": [],
      "name": "appointmentId",
      "outputs": [
        {
          "internalType": "uint256",
          "name": "",
          "type": "uint256"
        }
      ],
      "stateMutability": "view",
      "type": "function"
    },
    {
      "inputs": [
        {
          "internalType": "uint256",
          "name": "",
          "type": "uint256"
        },
        {
          "internalType": "uint256",
          "name": "",
          "type": "uint256"
        }
      ],
      "name": "appointments",
      "outputs": [
        {
          "internalType": "bool",
          "name": "",
          "type": "bool"
        }
      ],
      "stateMutability": "view",
      "type": "function"
    },
    {
      "inputs": [
        {
          "internalType": "uint256",
          "name": "",
          "type": "uint256"
        }
      ],
      "name": "appointmentsArray",
      "outputs": [
        {
          "internalType": "uint256",
          "name": "id",
          "type": "uint256"
        },
        {
          "internalType": "string",
          "name": "title",
          "type": "string"
        },
        {
          "internalType": "address",
          "name": "attendee",
          "type": "address"
        },
        {
          "internalType": "uint256",
          "name": "date",
          "type": "uint256"
        },
        {
          "internalType": "uint256",
          "name": "day",
          "type": "uint256"
        },
        {
          "internalType": "uint256",
          "name": "startTime",
          "type": "uint256"
        },
        {
          "internalType": "uint256",
          "name": "duration",
          "type": "uint256"
        },
        {
          "internalType": "uint256",
          "name": "payRate",
          "type": "uint256"
        }
      ],
      "stateMutability": "view",
      "type": "function"
    },
    {
      "inputs": [
        {
          "internalType": "uint256",
          "name": "",
          "type": "uint256"
        },
        {
          "internalType": "uint256",
          "name": "",
          "type": "uint256"
        }
      ],
      "name": "availability",
      "outputs": [
        {
          "internalType": "bool",
          "name": "",
          "type": "bool"
        }
      ],
      "stateMutability": "view",
      "type": "function"
    },
    {
      "inputs": [],
      "name": "availabilityEncodedStr",
      "outputs": [
        {
          "internalType": "string",
          "name": "",
          "type": "string"
        }
      ],
      "stateMutability": "view",
      "type": "function"
    },
    {
      "inputs": [
        {
          "internalType": "string",
          "name": "_title",
          "type": "string"
        },
        {
          "internalType": "uint256",
          "name": "_date",
          "type": "uint256"
        },
        {
          "internalType": "uint256",
          "name": "_day",
          "type": "uint256"
        },
        {
          "internalType": "address",
          "name": "_attendee",
          "type": "address"
        },
        {
          "internalType": "uint256",
          "name": "_startTime",
          "type": "uint256"
        },
        {
          "internalType": "uint256",
          "name": "_duration",
          "type": "uint256"
        }
      ],
      "name": "createAppointment",
      "outputs": [],
      "stateMutability": "nonpayable",
      "type": "function"
    },
    {
      "inputs": [
        {
          "internalType": "uint256",
          "name": "_rate",
          "type": "uint256"
        }
      ],
      "name": "createRate",
      "outputs": [],
      "stateMutability": "nonpayable",
      "type": "function"
    },
    {
      "inputs": [
        {
          "internalType": "uint256",
          "name": "_utc",
          "type": "uint256"
        }
      ],
      "name": "createUtc",
      "outputs": [],
      "stateMutability": "nonpayable",
      "type": "function"
    },
    {
      "inputs": [],
      "name": "currentTime",
      "outputs": [
        {
          "internalType": "uint256",
          "name": "",
          "type": "uint256"
        }
      ],
      "stateMutability": "view",
      "type": "function"
    },
    {
      "inputs": [
        {
          "internalType": "uint256",
          "name": "_appointmentId",
          "type": "uint256"
        }
      ],
      "name": "deleteAppointment",
      "outputs": [],
      "stateMutability": "nonpayable",
      "type": "function"
    },
    {
      "inputs": [
        {
          "internalType": "uint256",
          "name": "_day",
          "type": "uint256"
        },
        {
          "internalType": "uint256",
          "name": "_startTime",
          "type": "uint256"
        },
        {
          "internalType": "uint256",
          "name": "_duration",
          "type": "uint256"
        }
      ],
      "name": "deleteAvailability",
      "outputs": [],
      "stateMutability": "nonpayable",
      "type": "function"
    },
    {
      "inputs": [],
      "name": "getRate",
      "outputs": [
        {
          "internalType": "uint256",
          "name": "",
          "type": "uint256"
        }
      ],
      "stateMutability": "view",
      "type": "function"
    },
    {
      "inputs": [],
      "name": "getUtc",
      "outputs": [
        {
          "internalType": "uint256",
          "name": "",
          "type": "uint256"
        }
      ],
      "stateMutability": "view",
      "type": "function"
    },
    {
      "inputs": [
        {
          "internalType": "string",
          "name": "userName",
          "type": "string"
        },
        {
          "internalType": "address",
          "name": "communityTracker",
          "type": "address"
        },
        {
          "internalType": "address",
          "name": "_owner",
          "type": "address"
        }
      ],
      "name": "init",
      "outputs": [],
      "stateMutability": "nonpayable",
      "type": "function"
    },
    {
      "inputs": [],
      "name": "name",
      "outputs": [
        {
          "internalType": "string",
          "name": "",
          "type": "string"
        }
      ],
      "stateMutability": "view",
      "type": "function"
    },
    {
      "inputs": [],
      "name": "owner",
      "outputs": [
        {
          "internalType": "address",
          "name": "",
          "type": "address"
        }
      ],
      "stateMutability": "view",
      "type": "function"
    },
    {
      "inputs": [],
      "name": "rate",
      "outputs": [
        {
          "internalType": "uint256",
          "name": "",
          "type": "uint256"
        }
      ],
      "stateMutability": "view",
      "type": "function"
    },
    {
      "inputs": [],
      "name": "readAppointments",
      "outputs": [
        {
          "components": [
            {
              "internalType": "uint256",
              "name": "id",
              "type": "uint256"
            },
            {
              "internalType": "string",
              "name": "title",
              "type": "string"
            },
            {
              "internalType": "address",
              "name": "attendee",
              "type": "address"
            },
            {
              "internalType": "uint256",
              "name": "date",
              "type": "uint256"
            },
            {
              "internalType": "uint256",
              "name": "day",
              "type": "uint256"
            },
            {
              "internalType": "uint256",
              "name": "startTime",
              "type": "uint256"
            },
            {
              "internalType": "uint256",
              "name": "duration",
              "type": "uint256"
            },
            {
              "internalType": "uint256",
              "name": "payRate",
              "type": "uint256"
            }
          ],
          "internalType": "struct UserCalendar.Appointment[]",
          "name": "",
          "type": "tuple[]"
        }
      ],
      "stateMutability": "view",
      "type": "function"
    },
    {
      "inputs": [
        {
          "internalType": "string",
          "name": "_availabilityEncoded",
          "type": "string"
        }
      ],
      "name": "setAvailability",
      "outputs": [],
      "stateMutability": "nonpayable",
      "type": "function"
    },
    {
      "inputs": [],
      "name": "sortAppointments",
      "outputs": [],
      "stateMutability": "nonpayable",
      "type": "function"
    },
    {
      "inputs": [
        {
          "internalType": "string",
          "name": "s",
          "type": "string"
        }
      ],
      "name": "stringToUint",
      "outputs": [
        {
          "internalType": "uint256",
          "name": "",
          "type": "uint256"
        }
      ],
      "stateMutability": "pure",
      "type": "function"
    },
    {
      "inputs": [
        {
          "internalType": "string",
          "name": "str",
          "type": "string"
        },
        {
          "internalType": "uint256",
          "name": "startIndex",
          "type": "uint256"
        },
        {
          "internalType": "uint256",
          "name": "endIndex",
          "type": "uint256"
        }
      ],
      "name": "substring",
      "outputs": [
        {
          "internalType": "string",
          "name": "",
          "type": "string"
        }
      ],
      "stateMutability": "view",
      "type": "function"
    },
    {
      "inputs": [],
      "name": "utc",
      "outputs": [
        {
          "internalType": "uint256",
          "name": "",
          "type": "uint256"
        }
      ],
      "stateMutability": "view",
      "type": "function"
    }
  ],
  "bytecode": "0x6080604052600160025560405180602001604052806000815250600690805190602001906200003092919062000045565b503480156200003e57600080fd5b5062000159565b828054620000539062000124565b90600052602060002090601f016020900481019282620000775760008555620000c3565b82601f106200009257805160ff1916838001178555620000c3565b82800160010185558215620000c3579182015b82811115620000c2578251825591602001919060010190620000a5565b5b509050620000d29190620000d6565b5090565b5b80821115620000f1576000816000905550600101620000d7565b5090565b7f4e487b7100000000000000000000000000000000000000000000000000000000600052602260045260246000fd5b600060028204905060018216806200013d57607f821691505b602082108103620001535762000152620000f5565b5b50919050565b6131c780620001696000396000f3fe608060405234801561001057600080fd5b506004361061014d5760003560e01c8063679aefce116100c3578063b4fa6b7a1161007c578063b4fa6b7a14610381578063b733df811461039f578063bfc3a2f2146103bb578063cd9b33ee146103d9578063d18e81b314610409578063e45bc178146104275761014d565b8063679aefce146102bd57806371f72fa0146102db5780638da5cb5b146102f75780639358f3cd14610315578063a1713a8114610345578063a2ccd69f146103635761014d565b80631dcd9b55116101155780631dcd9b55146101f65780632bc51359146102265780632c4e722e1461025d578063469318151461027b578063484168dd14610297578063485521f0146102a15761014d565b806306fdde03146101525780630c29aeb1146101705780630f66cd661461018e5780631ae5970e146101aa5780631bd95155146101c6575b600080fd5b61015a610443565b6040516101679190612599565b60405180910390f35b6101786104d1565b60405161018591906125d4565b60405180910390f35b6101a860048036038101906101a391906127c2565b6104da565b005b6101c460048036038101906101bf919061286b565b6107e7565b005b6101e060048036038101906101db9190612898565b6107f1565b6040516101ed91906125d4565b60405180910390f35b610210600480360381019061020b91906128e1565b610889565b60405161021d9190612599565b60405180910390f35b610240600480360381019061023b919061286b565b6109c6565b60405161025498979695949392919061295f565b60405180910390f35b610265610ac6565b60405161027291906125d4565b60405180910390f35b6102956004803603810190610290919061286b565b610acc565b005b61029f610cf1565b005b6102bb60048036038101906102b69190612898565b6114dc565b005b6102c561181f565b6040516102d291906125d4565b60405180910390f35b6102f560048036038101906102f091906129e4565b611829565b005b6102ff61192e565b60405161030c9190612a53565b60405180910390f35b61032f600480360381019061032a9190612a6e565b611954565b60405161033c9190612ac9565b60405180910390f35b61034d611983565b60405161035a9190612599565b60405180910390f35b61036b611a11565b60405161037891906125d4565b60405180910390f35b610389611a17565b60405161039691906125d4565b60405180910390f35b6103b960048036038101906103b4919061286b565b611a1d565b005b6103c3611ab7565b6040516103d09190612cbe565b60405180910390f35b6103f360048036038101906103ee9190612a6e565b611c3b565b6040516104009190612ac9565b60405180910390f35b610411611c6a565b60405161041e91906125d4565b60405180910390f35b610441600480360381019061043c9190612ce0565b611c96565b005b6004805461045090612d62565b80601f016020809104026020016040519081016040528092919081815260200182805461047c90612d62565b80156104c95780601f1061049e576101008083540402835291602001916104c9565b820191906000526020600020905b8154815290600101906020018083116104ac57829003601f168201915b505050505081565b60008054905090565b600084101580156104ec575060068411155b61052b576040517f08c379a000000000000000000000000000000000000000000000000000000000815260040161052290612ddf565b60405180910390fd5b60005b818110156105d8576001151560086000888152602001908152602001600020600060198461055c9190612e2e565b866105679190612e88565b815260200190815260200160002060009054906101000a900460ff161515036105c5576040517f08c379a00000000000000000000000000000000000000000000000000000000081526004016105bc90612f50565b60405180910390fd5b80806105d090612f70565b91505061052e565b506105e1612335565b600254816000018181525050868160200181905250858160600181815250508481608001818152505083816040019073ffffffffffffffffffffffffffffffffffffffff16908173ffffffffffffffffffffffffffffffffffffffff1681525050828160a0018181525050818160c00181815250506001548160e0018181525050600160086000888152602001908152602001600020600085815260200190815260200160002060006101000a81548160ff02191690831515021790555060005b828110156106fa57600160086000898152602001908152602001600020600083815260200190815260200160002060006101000a81548160ff02191690831515021790555080806106f290612f70565b9150506106a2565b50600981908060018154018082558091505060019003906000526020600020906008020160009091909190915060008201518160000155602082015181600101908051906020019061074d929190612390565b5060408201518160020160006101000a81548173ffffffffffffffffffffffffffffffffffffffff021916908373ffffffffffffffffffffffffffffffffffffffff160217905550606082015181600301556080820151816004015560a0820151816005015560c0820151816006015560e08201518160070155505060016002546107d89190612e88565b60028190555050505050505050565b8060018190555050565b6000808290506000805b825181101561087e57600083828151811061081957610818612fb8565b5b602001015160f81c60f81b60f81c60ff1690506030811015801561083e575060398111155b1561086a576030816108509190612fe7565b600a8461085d9190612e2e565b6108679190612e88565b92505b50808061087690612f70565b9150506107fb565b508092505050919050565b606060008490506000848461089e9190612fe7565b67ffffffffffffffff8111156108b7576108b661260d565b5b6040519080825280601f01601f1916602001820160405280156108e95781602001600182028036833780820191505090505b50905061092d6040518060400160405280601d81526020017f737562737472696e672025732073746172742025732c20656e64202573000000815250878787611df8565b60008590505b848110156109b95782818151811061094e5761094d612fb8565b5b602001015160f81c60f81b8287836109669190612fe7565b8151811061097757610976612fb8565b5b60200101907effffffffffffffffffffffffffffffffffffffffffffffffffffffffffffff1916908160001a90535080806109b190612f70565b915050610933565b5080925050509392505050565b600981815481106109d657600080fd5b90600052602060002090600802016000915090508060000154908060010180546109ff90612d62565b80601f0160208091040260200160405190810160405280929190818152602001828054610a2b90612d62565b8015610a785780601f10610a4d57610100808354040283529160200191610a78565b820191906000526020600020905b815481529060010190602001808311610a5b57829003601f168201915b5050505050908060020160009054906101000a900473ffffffffffffffffffffffffffffffffffffffff16908060030154908060040154908060050154908060060154908060070154905088565b60015481565b600360009054906101000a900473ffffffffffffffffffffffffffffffffffffffff1673ffffffffffffffffffffffffffffffffffffffff163373ffffffffffffffffffffffffffffffffffffffff1614610b5c576040517f08c379a0000000000000000000000000000000000000000000000000000000008152600401610b5390613067565b60405180910390fd5b6000600182610b6b9190612fe7565b9050600060098281548110610b8357610b82612fb8565b5b9060005260206000209060080201600301549050600060098381548110610bad57610bac612fb8565b5b9060005260206000209060080201600501549050600060098481548110610bd757610bd6612fb8565b5b906000526020600020906008020160060154905060005b81811015610c5d576000600860008681526020019081526020016000206000601984610c1a9190612e2e565b86610c259190612e88565b815260200190815260200160002060006101000a81548160ff0219169083151502179055508080610c5590612f70565b915050610bee565b5060098481548110610c7257610c71612fb8565b5b9060005260206000209060080201600080820160009055600182016000610c999190612416565b6002820160006101000a81549073ffffffffffffffffffffffffffffffffffffffff02191690556003820160009055600482016000905560058201600090556006820160009055600782016000905550505050505050565b6000600190505b80156114d9576000905060005b6001600980549050610d179190612fe7565b8110156114d3576009600182610d2d9190612e88565b81548110610d3e57610d3d612fb8565b5b90600052602060002090600802016003015460098281548110610d6457610d63612fb8565b5b90600052602060002090600802016003015411156110c057600060098281548110610d9257610d91612fb8565b5b90600052602060002090600802016040518061010001604052908160008201548152602001600182018054610dc690612d62565b80601f0160208091040260200160405190810160405280929190818152602001828054610df290612d62565b8015610e3f5780601f10610e1457610100808354040283529160200191610e3f565b820191906000526020600020905b815481529060010190602001808311610e2257829003601f168201915b505050505081526020016002820160009054906101000a900473ffffffffffffffffffffffffffffffffffffffff1673ffffffffffffffffffffffffffffffffffffffff1673ffffffffffffffffffffffffffffffffffffffff1681526020016003820154815260200160048201548152602001600582015481526020016006820154815260200160078201548152505090506009600183610ee19190612e88565b81548110610ef257610ef1612fb8565b5b906000526020600020906008020160098381548110610f1457610f13612fb8565b5b9060005260206000209060080201600082015481600001556001820181600101908054610f4090612d62565b610f4b929190612456565b506002820160009054906101000a900473ffffffffffffffffffffffffffffffffffffffff168160020160006101000a81548173ffffffffffffffffffffffffffffffffffffffff021916908373ffffffffffffffffffffffffffffffffffffffff1602179055506003820154816003015560048201548160040155600582015481600501556006820154816006015560078201548160070155905050806009600184610ff89190612e88565b8154811061100957611008612fb8565b5b906000526020600020906008020160008201518160000155602082015181600101908051906020019061103d929190612390565b5060408201518160020160006101000a81548173ffffffffffffffffffffffffffffffffffffffff021916908373ffffffffffffffffffffffffffffffffffffffff160217905550606082015181600301556080820151816004015560a0820151816005015560c0820151816006015560e0820151816007015590505060019250505b60096001826110cf9190612e88565b815481106110e0576110df612fb8565b5b9060005260206000209060080201600301546009828154811061110657611105612fb8565b5b906000526020600020906008020160030154036114c057600960018261112c9190612e88565b8154811061113d5761113c612fb8565b5b9060005260206000209060080201600501546009828154811061116357611162612fb8565b5b90600052602060002090600802016005015411156114bf5760006009828154811061119157611190612fb8565b5b906000526020600020906008020160405180610100016040529081600082015481526020016001820180546111c590612d62565b80601f01602080910402602001604051908101604052809291908181526020018280546111f190612d62565b801561123e5780601f106112135761010080835404028352916020019161123e565b820191906000526020600020905b81548152906001019060200180831161122157829003601f168201915b505050505081526020016002820160009054906101000a900473ffffffffffffffffffffffffffffffffffffffff1673ffffffffffffffffffffffffffffffffffffffff1673ffffffffffffffffffffffffffffffffffffffff16815260200160038201548152602001600482015481526020016005820154815260200160068201548152602001600782015481525050905060096001836112e09190612e88565b815481106112f1576112f0612fb8565b5b90600052602060002090600802016009838154811061131357611312612fb8565b5b906000526020600020906008020160008201548160000155600182018160010190805461133f90612d62565b61134a929190612456565b506002820160009054906101000a900473ffffffffffffffffffffffffffffffffffffffff168160020160006101000a81548173ffffffffffffffffffffffffffffffffffffffff021916908373ffffffffffffffffffffffffffffffffffffffff16021790555060038201548160030155600482015481600401556005820154816005015560068201548160060155600782015481600701559050508060096001846113f79190612e88565b8154811061140857611407612fb8565b5b906000526020600020906008020160008201518160000155602082015181600101908051906020019061143c929190612390565b5060408201518160020160006101000a81548173ffffffffffffffffffffffffffffffffffffffff021916908373ffffffffffffffffffffffffffffffffffffffff160217905550606082015181600301556080820151816004015560a0820151816005015560c0820151816006015560e0820151816007015590505060019250505b5b80806114cb90612f70565b915050610d05565b50610cf8565b50565b600360009054906101000a900473ffffffffffffffffffffffffffffffffffffffff1673ffffffffffffffffffffffffffffffffffffffff163373ffffffffffffffffffffffffffffffffffffffff161461156c576040517f08c379a000000000000000000000000000000000000000000000000000000000815260040161156390613067565b60405180910390fd5b8060069080519060200190611582929190612390565b506115a560405180606001604052806027815260200161316b6027913982611e9a565b6115ad611f36565b6000806115b983611fb7565b90506115fa6040518060400160405280600c81526020017f7374724c656e677468202573000000000000000000000000000000000000000081525082612270565b5b8082101561181a57600061161c84846001866116179190612e88565b610889565b905061165d6040518060400160405280600c81526020017f646179537562537472202573000000000000000000000000000000000000000081525082611e9a565b6000611668826107f1565b90506116a96040518060400160405280600681526020017f646179202573000000000000000000000000000000000000000000000000000081525082612270565b60006116d66116d1876001886116bf9190612e88565b6005896116cc9190612e88565b610889565b6107f1565b90506117176040518060400160405280600c81526020017f737461727454696d65202573000000000000000000000000000000000000000081525082612270565b600061174461173f8860058961172d9190612e88565b60078a61173a9190612e88565b610889565b6107f1565b90506117856040518060400160405280600b81526020017f6475726174696f6e20257300000000000000000000000000000000000000000081525082612270565b60006019826117949190612e2e565b8361179f9190612e88565b905060008390505b8181101561180057600160076000878152602001908152602001600020600083815260200190815260200160002060006101000a81548160ff0219169083151502179055506019816117f99190612e88565b90506117a7565b5050505050506007826118139190612e88565b91506115fb565b505050565b6000600154905090565b60001515600560009054906101000a900460ff1615151461184957600080fd5b80600360006101000a81548173ffffffffffffffffffffffffffffffffffffffff021916908373ffffffffffffffffffffffffffffffffffffffff16021790555082600490805190602001906118a0929190612390565b508173ffffffffffffffffffffffffffffffffffffffff166329361a7182306040518363ffffffff1660e01b81526004016118dc929190613087565b600060405180830381600087803b1580156118f657600080fd5b505af115801561190a573d6000803e3d6000fd5b505050506001600560006101000a81548160ff021916908315150217905550505050565b600360009054906101000a900473ffffffffffffffffffffffffffffffffffffffff1681565b60076020528160005260406000206020528060005260406000206000915091509054906101000a900460ff1681565b6006805461199090612d62565b80601f01602080910402602001604051908101604052809291908181526020018280546119bc90612d62565b8015611a095780601f106119de57610100808354040283529160200191611a09565b820191906000526020600020905b8154815290600101906020018083116119ec57829003601f168201915b505050505081565b60025481565b60005481565b600360009054906101000a900473ffffffffffffffffffffffffffffffffffffffff1673ffffffffffffffffffffffffffffffffffffffff163373ffffffffffffffffffffffffffffffffffffffff1614611aad576040517f08c379a0000000000000000000000000000000000000000000000000000000008152600401611aa490613067565b60405180910390fd5b8060008190555050565b60606009805480602002602001604051908101604052809291908181526020016000905b82821015611c3257838290600052602060002090600802016040518061010001604052908160008201548152602001600182018054611b1990612d62565b80601f0160208091040260200160405190810160405280929190818152602001828054611b4590612d62565b8015611b925780601f10611b6757610100808354040283529160200191611b92565b820191906000526020600020905b815481529060010190602001808311611b7557829003601f168201915b505050505081526020016002820160009054906101000a900473ffffffffffffffffffffffffffffffffffffffff1673ffffffffffffffffffffffffffffffffffffffff1673ffffffffffffffffffffffffffffffffffffffff1681526020016003820154815260200160048201548152602001600582015481526020016006820154815260200160078201548152505081526020019060010190611adb565b50505050905090565b60086020528160005260406000206020528060005260406000206000915091509054906101000a900460ff1681565b6000603c80600054611c7c9190612e2e565b611c869190612e2e565b42611c919190612e88565b905090565b600360009054906101000a900473ffffffffffffffffffffffffffffffffffffffff1673ffffffffffffffffffffffffffffffffffffffff163373ffffffffffffffffffffffffffffffffffffffff1614611d26576040517f08c379a0000000000000000000000000000000000000000000000000000000008152600401611d1d90613067565b60405180910390fd5b60008310158015611d38575060068311155b611d77576040517f08c379a0000000000000000000000000000000000000000000000000000000008152600401611d6e90612ddf565b60405180910390fd5b60008290506000601983611d8b9190612e2e565b84611d969190612e88565b90505b80821015611df157600060076000878152602001908152602001600020600084815260200190815260200160002060006101000a81548160ff021916908315150217905550601982611deb9190612e88565b50611d99565b5050505050565b611e9484848484604051602401611e1294939291906130b0565b6040516020818303038152906040527ff45d7d2c000000000000000000000000000000000000000000000000000000007bffffffffffffffffffffffffffffffffffffffffffffffffffffffff19166020820180517bffffffffffffffffffffffffffffffffffffffffffffffffffffffff838183161783525050505061230c565b50505050565b611f328282604051602401611eb0929190613103565b6040516020818303038152906040527f4b5c4277000000000000000000000000000000000000000000000000000000007bffffffffffffffffffffffffffffffffffffffffffffffffffffffff19166020820180517bffffffffffffffffffffffffffffffffffffffffffffffffffffffff838183161783525050505061230c565b5050565b60005b6007811015611fb45760005b610960811015611fa057600060076000848152602001908152602001600020600083815260200190815260200160002060006101000a81548160ff021916908315150217905550601981611f999190612e88565b9050611f45565b508080611fac90612f70565b915050611f39565b50565b6000806000905060008390505b805182101561226957600060f81b6007828481518110611fe757611fe6612fb8565b5b602001015160f81c60f81b7effffffffffffffffffffffffffffffffffffffffffffffffffffffffffffff1916901c7effffffffffffffffffffffffffffffffffffffffffffffffffffffffffffff1916036120515760018261204a9190612e88565b9150612256565b600660f81b7effffffffffffffffffffffffffffffffffffffffffffffffffffffffffffff1916600582848151811061208d5761208c612fb8565b5b602001015160f81c60f81b7effffffffffffffffffffffffffffffffffffffffffffffffffffffffffffff1916901c7effffffffffffffffffffffffffffffffffffffffffffffffffffffffffffff1916036120f7576002826120f09190612e88565b9150612255565b600e60f81b7effffffffffffffffffffffffffffffffffffffffffffffffffffffffffffff1916600482848151811061213357612132612fb8565b5b602001015160f81c60f81b7effffffffffffffffffffffffffffffffffffffffffffffffffffffffffffff1916901c7effffffffffffffffffffffffffffffffffffffffffffffffffffffffffffff19160361219d576003826121969190612e88565b9150612254565b601e60f81b7effffffffffffffffffffffffffffffffffffffffffffffffffffffffffffff191660038284815181106121d9576121d8612fb8565b5b602001015160f81c60f81b7effffffffffffffffffffffffffffffffffffffffffffffffffffffffffffff1916901c7effffffffffffffffffffffffffffffffffffffffffffffffffffffffffffff1916036122435760048261223c9190612e88565b9150612253565b6001826122509190612e88565b91505b5b5b5b828061226190612f70565b935050611fc4565b5050919050565b612308828260405160240161228692919061313a565b6040516020818303038152906040527fb60e72cc000000000000000000000000000000000000000000000000000000007bffffffffffffffffffffffffffffffffffffffffffffffffffffffff19166020820180517bffffffffffffffffffffffffffffffffffffffffffffffffffffffff838183161783525050505061230c565b5050565b60008151905060006a636f6e736f6c652e6c6f679050602083016000808483855afa5050505050565b6040518061010001604052806000815260200160608152602001600073ffffffffffffffffffffffffffffffffffffffff16815260200160008152602001600081526020016000815260200160008152602001600081525090565b82805461239c90612d62565b90600052602060002090601f0160209004810192826123be5760008555612405565b82601f106123d757805160ff1916838001178555612405565b82800160010185558215612405579182015b828111156124045782518255916020019190600101906123e9565b5b50905061241291906124e3565b5090565b50805461242290612d62565b6000825580601f106124345750612453565b601f01602090049060005260206000209081019061245291906124e3565b5b50565b82805461246290612d62565b90600052602060002090601f01602090048101928261248457600085556124d2565b82601f1061249557805485556124d2565b828001600101855582156124d257600052602060002091601f016020900482015b828111156124d15782548255916001019190600101906124b6565b5b5090506124df91906124e3565b5090565b5b808211156124fc5760008160009055506001016124e4565b5090565b600081519050919050565b600082825260208201905092915050565b60005b8381101561253a57808201518184015260208101905061251f565b83811115612549576000848401525b50505050565b6000601f19601f8301169050919050565b600061256b82612500565b612575818561250b565b935061258581856020860161251c565b61258e8161254f565b840191505092915050565b600060208201905081810360008301526125b38184612560565b905092915050565b6000819050919050565b6125ce816125bb565b82525050565b60006020820190506125e960008301846125c5565b92915050565b6000604051905090565b600080fd5b600080fd5b600080fd5b600080fd5b7f4e487b7100000000000000000000000000000000000000000000000000000000600052604160045260246000fd5b6126458261254f565b810181811067ffffffffffffffff821117156126645761266361260d565b5b80604052505050565b60006126776125ef565b9050612683828261263c565b919050565b600067ffffffffffffffff8211156126a3576126a261260d565b5b6126ac8261254f565b9050602081019050919050565b82818337600083830152505050565b60006126db6126d684612688565b61266d565b9050828152602081018484840111156126f7576126f6612608565b5b6127028482856126b9565b509392505050565b600082601f83011261271f5761271e612603565b5b813561272f8482602086016126c8565b91505092915050565b612741816125bb565b811461274c57600080fd5b50565b60008135905061275e81612738565b92915050565b600073ffffffffffffffffffffffffffffffffffffffff82169050919050565b600061278f82612764565b9050919050565b61279f81612784565b81146127aa57600080fd5b50565b6000813590506127bc81612796565b92915050565b60008060008060008060c087890312156127df576127de6125f9565b5b600087013567ffffffffffffffff8111156127fd576127fc6125fe565b5b61280989828a0161270a565b965050602061281a89828a0161274f565b955050604061282b89828a0161274f565b945050606061283c89828a016127ad565b935050608061284d89828a0161274f565b92505060a061285e89828a0161274f565b9150509295509295509295565b600060208284031215612881576128806125f9565b5b600061288f8482850161274f565b91505092915050565b6000602082840312156128ae576128ad6125f9565b5b600082013567ffffffffffffffff8111156128cc576128cb6125fe565b5b6128d88482850161270a565b91505092915050565b6000806000606084860312156128fa576128f96125f9565b5b600084013567ffffffffffffffff811115612918576129176125fe565b5b6129248682870161270a565b93505060206129358682870161274f565b92505060406129468682870161274f565b9150509250925092565b61295981612784565b82525050565b600061010082019050612975600083018b6125c5565b8181036020830152612987818a612560565b90506129966040830189612950565b6129a360608301886125c5565b6129b060808301876125c5565b6129bd60a08301866125c5565b6129ca60c08301856125c5565b6129d760e08301846125c5565b9998505050505050505050565b6000806000606084860312156129fd576129fc6125f9565b5b600084013567ffffffffffffffff811115612a1b57612a1a6125fe565b5b612a278682870161270a565b9350506020612a38868287016127ad565b9250506040612a49868287016127ad565b9150509250925092565b6000602082019050612a686000830184612950565b92915050565b60008060408385031215612a8557612a846125f9565b5b6000612a938582860161274f565b9250506020612aa48582860161274f565b9150509250929050565b60008115159050919050565b612ac381612aae565b82525050565b6000602082019050612ade6000830184612aba565b92915050565b600081519050919050565b600082825260208201905092915050565b6000819050602082019050919050565b612b19816125bb565b82525050565b600082825260208201905092915050565b6000612b3b82612500565b612b458185612b1f565b9350612b5581856020860161251c565b612b5e8161254f565b840191505092915050565b612b7281612784565b82525050565b600061010083016000830151612b916000860182612b10565b5060208301518482036020860152612ba98282612b30565b9150506040830151612bbe6040860182612b69565b506060830151612bd16060860182612b10565b506080830151612be46080860182612b10565b5060a0830151612bf760a0860182612b10565b5060c0830151612c0a60c0860182612b10565b5060e0830151612c1d60e0860182612b10565b508091505092915050565b6000612c348383612b78565b905092915050565b6000602082019050919050565b6000612c5482612ae4565b612c5e8185612aef565b935083602082028501612c7085612b00565b8060005b85811015612cac5784840389528151612c8d8582612c28565b9450612c9883612c3c565b925060208a01995050600181019050612c74565b50829750879550505050505092915050565b60006020820190508181036000830152612cd88184612c49565b905092915050565b600080600060608486031215612cf957612cf86125f9565b5b6000612d078682870161274f565b9350506020612d188682870161274f565b9250506040612d298682870161274f565b9150509250925092565b7f4e487b7100000000000000000000000000000000000000000000000000000000600052602260045260246000fd5b60006002820490506001821680612d7a57607f821691505b602082108103612d8d57612d8c612d33565b5b50919050565b7f64617920697320696e76616c6964000000000000000000000000000000000000600082015250565b6000612dc9600e8361250b565b9150612dd482612d93565b602082019050919050565b60006020820190508181036000830152612df881612dbc565b9050919050565b7f4e487b7100000000000000000000000000000000000000000000000000000000600052601160045260246000fd5b6000612e39826125bb565b9150612e44836125bb565b9250817fffffffffffffffffffffffffffffffffffffffffffffffffffffffffffffffff0483118215151615612e7d57612e7c612dff565b5b828202905092915050565b6000612e93826125bb565b9150612e9e836125bb565b9250827fffffffffffffffffffffffffffffffffffffffffffffffffffffffffffffffff03821115612ed357612ed2612dff565b5b828201905092915050565b7f6170706f696e746d656e7420646174652f74696d65206973206e6f742061766160008201527f696c61626c650000000000000000000000000000000000000000000000000000602082015250565b6000612f3a60268361250b565b9150612f4582612ede565b604082019050919050565b60006020820190508181036000830152612f6981612f2d565b9050919050565b6000612f7b826125bb565b91507fffffffffffffffffffffffffffffffffffffffffffffffffffffffffffffffff8203612fad57612fac612dff565b5b600182019050919050565b7f4e487b7100000000000000000000000000000000000000000000000000000000600052603260045260246000fd5b6000612ff2826125bb565b9150612ffd836125bb565b9250828210156130105761300f612dff565b5b828203905092915050565b7f6f6e6c79206f776e65722066756e6374696f6e00000000000000000000000000600082015250565b600061305160138361250b565b915061305c8261301b565b602082019050919050565b6000602082019050818103600083015261308081613044565b9050919050565b600060408201905061309c6000830185612950565b6130a96020830184612950565b9392505050565b600060808201905081810360008301526130ca8187612560565b905081810360208301526130de8186612560565b90506130ed60408301856125c5565b6130fa60608301846125c5565b95945050505050565b6000604082019050818103600083015261311d8185612560565b905081810360208301526131318184612560565b90509392505050565b600060408201905081810360008301526131548185612560565b905061316360208301846125c5565b939250505056fe736574417661696c6162696c697479205f617661696c6162696c697479456e636f646564202573a264697066735822122088eab71faccf2ef26e80b07ad0b537d216fc3e231c9692f4dbf3021afa6f051b64736f6c634300080d0033",
  "linkReferences": {},
  "deployedLinkReferences": {}
}