{
  "_format": "hh-sol-artifact-1",
  "contractName": "UserCalendar",
  "sourceName": "contracts/UserCalendar.sol",
  "abi": [
    {
      "inputs": [],
      "name": "appointmentId",
      "outputs": [
        {
          "internalType": "uint256",
          "name": "",
          "type": "uint256"
        }
      ],
      "stateMutability": "view",
      "type": "function"
    },
    {
      "inputs": [
        {
          "internalType": "uint256",
          "name": "",
          "type": "uint256"
        },
        {
          "internalType": "uint256",
          "name": "",
          "type": "uint256"
        }
      ],
      "name": "appointments",
      "outputs": [
        {
          "internalType": "bool",
          "name": "",
          "type": "bool"
        }
      ],
      "stateMutability": "view",
      "type": "function"
    },
    {
      "inputs": [
        {
          "internalType": "uint256",
          "name": "",
          "type": "uint256"
        }
      ],
      "name": "appointmentsArray",
      "outputs": [
        {
          "internalType": "uint256",
          "name": "id",
          "type": "uint256"
        },
        {
          "internalType": "string",
          "name": "title",
          "type": "string"
        },
        {
          "internalType": "address",
          "name": "attendee",
          "type": "address"
        },
        {
          "internalType": "uint256",
          "name": "date",
          "type": "uint256"
        },
        {
          "internalType": "uint256",
          "name": "day",
          "type": "uint256"
        },
        {
          "internalType": "uint256",
          "name": "startTime",
          "type": "uint256"
        },
        {
          "internalType": "uint256",
          "name": "duration",
          "type": "uint256"
        },
        {
          "internalType": "uint256",
          "name": "payRate",
          "type": "uint256"
        }
      ],
      "stateMutability": "view",
      "type": "function"
    },
    {
      "inputs": [
        {
          "internalType": "uint256",
          "name": "",
          "type": "uint256"
        },
        {
          "internalType": "uint256",
          "name": "",
          "type": "uint256"
        }
      ],
      "name": "availability",
      "outputs": [
        {
          "internalType": "bool",
          "name": "",
          "type": "bool"
        }
      ],
      "stateMutability": "view",
      "type": "function"
    },
    {
      "inputs": [
        {
          "internalType": "uint256",
          "name": "",
          "type": "uint256"
        },
        {
          "internalType": "uint256",
          "name": "",
          "type": "uint256"
        }
      ],
      "name": "availabilityArray",
      "outputs": [
        {
          "internalType": "uint256",
          "name": "",
          "type": "uint256"
        }
      ],
      "stateMutability": "view",
      "type": "function"
    },
    {
      "inputs": [],
      "name": "availabilityEncodedStr",
      "outputs": [
        {
          "internalType": "string",
          "name": "",
          "type": "string"
        }
      ],
      "stateMutability": "view",
      "type": "function"
    },
    {
      "inputs": [
        {
          "internalType": "string",
          "name": "_title",
          "type": "string"
        },
        {
          "internalType": "uint256",
          "name": "_date",
          "type": "uint256"
        },
        {
          "internalType": "uint256",
          "name": "_day",
          "type": "uint256"
        },
        {
          "internalType": "address",
          "name": "_attendee",
          "type": "address"
        },
        {
          "internalType": "uint256",
          "name": "_startTime",
          "type": "uint256"
        },
        {
          "internalType": "uint256",
          "name": "_duration",
          "type": "uint256"
        }
      ],
      "name": "createAppointment",
      "outputs": [],
      "stateMutability": "nonpayable",
      "type": "function"
    },
    {
      "inputs": [
        {
          "internalType": "uint256",
          "name": "_rate",
          "type": "uint256"
        }
      ],
      "name": "createRate",
      "outputs": [],
      "stateMutability": "nonpayable",
      "type": "function"
    },
    {
      "inputs": [
        {
          "internalType": "uint256",
          "name": "_utc",
          "type": "uint256"
        }
      ],
      "name": "createUtc",
      "outputs": [],
      "stateMutability": "nonpayable",
      "type": "function"
    },
    {
      "inputs": [],
      "name": "currentTime",
      "outputs": [
        {
          "internalType": "uint256",
          "name": "",
          "type": "uint256"
        }
      ],
      "stateMutability": "view",
      "type": "function"
    },
    {
      "inputs": [
        {
          "internalType": "uint256",
          "name": "_appointmentId",
          "type": "uint256"
        }
      ],
      "name": "deleteAppointment",
      "outputs": [],
      "stateMutability": "nonpayable",
      "type": "function"
    },
    {
      "inputs": [
        {
          "internalType": "uint256",
          "name": "_day",
          "type": "uint256"
        },
        {
          "internalType": "uint256",
          "name": "_startTime",
          "type": "uint256"
        },
        {
          "internalType": "uint256",
          "name": "_endTime",
          "type": "uint256"
        }
      ],
      "name": "deleteAvailability",
      "outputs": [],
      "stateMutability": "nonpayable",
      "type": "function"
    },
    {
      "inputs": [],
      "name": "getRate",
      "outputs": [
        {
          "internalType": "uint256",
          "name": "",
          "type": "uint256"
        }
      ],
      "stateMutability": "view",
      "type": "function"
    },
    {
      "inputs": [],
      "name": "getUtc",
      "outputs": [
        {
          "internalType": "uint256",
          "name": "",
          "type": "uint256"
        }
      ],
      "stateMutability": "view",
      "type": "function"
    },
    {
      "inputs": [
        {
          "internalType": "string",
          "name": "userName",
          "type": "string"
        },
        {
          "internalType": "address",
          "name": "communityTracker",
          "type": "address"
        }
      ],
      "name": "init",
      "outputs": [],
      "stateMutability": "nonpayable",
      "type": "function"
    },
    {
      "inputs": [],
      "name": "name",
      "outputs": [
        {
          "internalType": "string",
          "name": "",
          "type": "string"
        }
      ],
      "stateMutability": "view",
      "type": "function"
    },
    {
      "inputs": [],
      "name": "owner",
      "outputs": [
        {
          "internalType": "address",
          "name": "",
          "type": "address"
        }
      ],
      "stateMutability": "view",
      "type": "function"
    },
    {
      "inputs": [],
      "name": "rate",
      "outputs": [
        {
          "internalType": "uint256",
          "name": "",
          "type": "uint256"
        }
      ],
      "stateMutability": "view",
      "type": "function"
    },
    {
      "inputs": [],
      "name": "readAppointments",
      "outputs": [
        {
          "components": [
            {
              "internalType": "uint256",
              "name": "id",
              "type": "uint256"
            },
            {
              "internalType": "string",
              "name": "title",
              "type": "string"
            },
            {
              "internalType": "address",
              "name": "attendee",
              "type": "address"
            },
            {
              "internalType": "uint256",
              "name": "date",
              "type": "uint256"
            },
            {
              "internalType": "uint256",
              "name": "day",
              "type": "uint256"
            },
            {
              "internalType": "uint256",
              "name": "startTime",
              "type": "uint256"
            },
            {
              "internalType": "uint256",
              "name": "duration",
              "type": "uint256"
            },
            {
              "internalType": "uint256",
              "name": "payRate",
              "type": "uint256"
            }
          ],
          "internalType": "struct UserCalendar.Appointment[]",
          "name": "",
          "type": "tuple[]"
        }
      ],
      "stateMutability": "view",
      "type": "function"
    },
    {
      "inputs": [],
      "name": "readAvailability",
      "outputs": [
        {
          "internalType": "uint256[7][96]",
          "name": "",
          "type": "uint256[7][96]"
        }
      ],
      "stateMutability": "view",
      "type": "function"
    },
    {
      "inputs": [
        {
          "internalType": "string",
          "name": "_availabilityEncoded",
          "type": "string"
        }
      ],
      "name": "setAvailability",
      "outputs": [],
      "stateMutability": "nonpayable",
      "type": "function"
    },
    {
      "inputs": [],
      "name": "sortAppointments",
      "outputs": [],
      "stateMutability": "nonpayable",
      "type": "function"
    },
    {
      "inputs": [
        {
          "internalType": "string",
          "name": "s",
          "type": "string"
        }
      ],
      "name": "stringToUint",
      "outputs": [
        {
          "internalType": "uint256",
          "name": "",
          "type": "uint256"
        }
      ],
      "stateMutability": "pure",
      "type": "function"
    },
    {
      "inputs": [
        {
          "internalType": "string",
          "name": "str",
          "type": "string"
        },
        {
          "internalType": "uint256",
          "name": "startIndex",
          "type": "uint256"
        },
        {
          "internalType": "uint256",
          "name": "endIndex",
          "type": "uint256"
        }
      ],
      "name": "substring",
      "outputs": [
        {
          "internalType": "string",
          "name": "",
          "type": "string"
        }
      ],
      "stateMutability": "pure",
      "type": "function"
    },
    {
      "inputs": [],
      "name": "utc",
      "outputs": [
        {
          "internalType": "uint256",
          "name": "",
          "type": "uint256"
        }
      ],
      "stateMutability": "view",
      "type": "function"
    }
  ],
  "bytecode": "0x6080604052600160025560405180602001604052806000815250600690805190602001906200003092919062000045565b503480156200003e57600080fd5b5062000159565b828054620000539062000124565b90600052602060002090601f016020900481019282620000775760008555620000c3565b82601f106200009257805160ff1916838001178555620000c3565b82800160010185558215620000c3579182015b82811115620000c2578251825591602001919060010190620000a5565b5b509050620000d29190620000d6565b5090565b5b80821115620000f1576000816000905550600101620000d7565b5090565b7f4e487b7100000000000000000000000000000000000000000000000000000000600052602260045260246000fd5b600060028204905060018216806200013d57607f821691505b602082108103620001535762000152620000f5565b5b50919050565b6131ab80620001696000396000f3fe608060405234801561001057600080fd5b50600436106101735760003560e01c8063679aefce116100de578063b733df8111610097578063cfa0811411610071578063cfa0811414610443578063d18e81b314610461578063de1595441461047f578063e45bc1781461049b57610173565b8063b733df81146103d9578063bfc3a2f2146103f5578063cd9b33ee1461041357610173565b8063679aefce146103135780638da5cb5b146103315780639358f3cd1461034f578063a1713a811461037f578063a2ccd69f1461039d578063b4fa6b7a146103bb57610173565b80631dcd9b55116101305780631dcd9b551461024c5780632bc513591461027c5780632c4e722e146102b357806346931815146102d1578063484168dd146102ed578063485521f0146102f757610173565b806306fdde03146101785780630c29aeb1146101965780630f66cd66146101b4578063145bd818146101d05780631ae5970e146102005780631bd951551461021c575b600080fd5b6101806104b7565b60405161018d919061242b565b60405180910390f35b61019e610545565b6040516101ab9190612466565b60405180910390f35b6101ce60048036038101906101c99190612654565b61054e565b005b6101ea60048036038101906101e591906126fd565b6108e0565b6040516101f79190612466565b60405180910390f35b61021a6004803603810190610215919061273d565b61090e565b005b6102366004803603810190610231919061276a565b610918565b6040516102439190612466565b60405180910390f35b610266600480360381019061026191906127b3565b6109b0565b604051610273919061242b565b60405180910390f35b6102966004803603810190610291919061273d565b610aac565b6040516102aa989796959493929190612831565b60405180910390f35b6102bb610bac565b6040516102c89190612466565b60405180910390f35b6102eb60048036038101906102e6919061273d565b610bb2565b005b6102f5610dd7565b005b610311600480360381019061030c919061276a565b6115c2565b005b61031b611784565b6040516103289190612466565b60405180910390f35b61033961178e565b60405161034691906128b6565b60405180910390f35b610369600480360381019061036491906126fd565b6117b4565b60405161037691906128ec565b60405180910390f35b6103876117e3565b604051610394919061242b565b60405180910390f35b6103a5611871565b6040516103b29190612466565b60405180910390f35b6103c3611877565b6040516103d09190612466565b60405180910390f35b6103f360048036038101906103ee919061273d565b61187d565b005b6103fd611917565b60405161040a9190612ae1565b60405180910390f35b61042d600480360381019061042891906126fd565b611a9b565b60405161043a91906128ec565b60405180910390f35b61044b611aca565b6040516104589190612c3b565b60405180910390f35b610469611b4d565b6040516104769190612466565b60405180910390f35b61049960048036038101906104949190612c57565b611b79565b005b6104b560048036038101906104b09190612cb3565b611c7d565b005b600480546104c490612d35565b80601f01602080910402602001604051908101604052809291908181526020018280546104f090612d35565b801561053d5780601f106105125761010080835404028352916020019161053d565b820191906000526020600020905b81548152906001019060200180831161052057829003601f168201915b505050505081565b60008054905090565b60008410158015610560575060068411155b61059f576040517f08c379a000000000000000000000000000000000000000000000000000000000815260040161059690612db2565b60405180910390fd5b60005b818110156106d1576001600a86606081106105c0576105bf612dd2565b5b600702016019836105d19190612e30565b856105dc9190612e8a565b600781106105ed576105ec612dd2565b5b01541461062f576040517f08c379a000000000000000000000000000000000000000000000000000000000815260040161062690612f52565b60405180910390fd5b600115156008600088815260200190815260200160002060006019846106559190612e30565b866106609190612e8a565b815260200190815260200160002060009054906101000a900460ff161515036106be576040517f08c379a00000000000000000000000000000000000000000000000000000000081526004016106b590612fe4565b60405180910390fd5b80806106c990613004565b9150506105a2565b506106da612177565b600254816000018181525050868160200181905250858160600181815250508481608001818152505083816040019073ffffffffffffffffffffffffffffffffffffffff16908173ffffffffffffffffffffffffffffffffffffffff1681525050828160a0018181525050818160c00181815250506001548160e0018181525050600160086000888152602001908152602001600020600085815260200190815260200160002060006101000a81548160ff02191690831515021790555060005b828110156107f357600160086000898152602001908152602001600020600083815260200190815260200160002060006101000a81548160ff02191690831515021790555080806107eb90613004565b91505061079b565b5060098190806001815401808255809150506001900390600052602060002090600802016000909190919091506000820151816000015560208201518160010190805190602001906108469291906121d2565b5060408201518160020160006101000a81548173ffffffffffffffffffffffffffffffffffffffff021916908373ffffffffffffffffffffffffffffffffffffffff160217905550606082015181600301556080820151816004015560a0820151816005015560c0820151816006015560e08201518160070155505060016002546108d19190612e8a565b60028190555050505050505050565b600a82606081106108f057600080fd5b60070201816007811061090257600080fd5b01600091509150505481565b8060018190555050565b6000808290506000805b82518110156109a55760008382815181106109405761093f612dd2565b5b602001015160f81c60f81b60f81c60ff16905060308110158015610965575060398111155b1561099157603081610977919061304c565b600a846109849190612e30565b61098e9190612e8a565b92505b50808061099d90613004565b915050610922565b508092505050919050565b60606000849050600084846109c5919061304c565b67ffffffffffffffff8111156109de576109dd61249f565b5b6040519080825280601f01601f191660200182016040528015610a105781602001600182028036833780820191505090505b50905060008590505b84811015610a9f57828181518110610a3457610a33612dd2565b5b602001015160f81c60f81b828783610a4c919061304c565b81518110610a5d57610a5c612dd2565b5b60200101907effffffffffffffffffffffffffffffffffffffffffffffffffffffffffffff1916908160001a9053508080610a9790613004565b915050610a19565b5080925050509392505050565b60098181548110610abc57600080fd5b9060005260206000209060080201600091509050806000015490806001018054610ae590612d35565b80601f0160208091040260200160405190810160405280929190818152602001828054610b1190612d35565b8015610b5e5780601f10610b3357610100808354040283529160200191610b5e565b820191906000526020600020905b815481529060010190602001808311610b4157829003601f168201915b5050505050908060020160009054906101000a900473ffffffffffffffffffffffffffffffffffffffff16908060030154908060040154908060050154908060060154908060070154905088565b60015481565b600360009054906101000a900473ffffffffffffffffffffffffffffffffffffffff1673ffffffffffffffffffffffffffffffffffffffff163373ffffffffffffffffffffffffffffffffffffffff1614610c42576040517f08c379a0000000000000000000000000000000000000000000000000000000008152600401610c39906130cc565b60405180910390fd5b6000600182610c51919061304c565b9050600060098281548110610c6957610c68612dd2565b5b9060005260206000209060080201600301549050600060098381548110610c9357610c92612dd2565b5b9060005260206000209060080201600501549050600060098481548110610cbd57610cbc612dd2565b5b906000526020600020906008020160060154905060005b81811015610d43576000600860008681526020019081526020016000206000601984610d009190612e30565b86610d0b9190612e8a565b815260200190815260200160002060006101000a81548160ff0219169083151502179055508080610d3b90613004565b915050610cd4565b5060098481548110610d5857610d57612dd2565b5b9060005260206000209060080201600080820160009055600182016000610d7f9190612258565b6002820160006101000a81549073ffffffffffffffffffffffffffffffffffffffff02191690556003820160009055600482016000905560058201600090556006820160009055600782016000905550505050505050565b6000600190505b80156115bf576000905060005b6001600980549050610dfd919061304c565b8110156115b9576009600182610e139190612e8a565b81548110610e2457610e23612dd2565b5b90600052602060002090600802016003015460098281548110610e4a57610e49612dd2565b5b90600052602060002090600802016003015411156111a657600060098281548110610e7857610e77612dd2565b5b90600052602060002090600802016040518061010001604052908160008201548152602001600182018054610eac90612d35565b80601f0160208091040260200160405190810160405280929190818152602001828054610ed890612d35565b8015610f255780601f10610efa57610100808354040283529160200191610f25565b820191906000526020600020905b815481529060010190602001808311610f0857829003601f168201915b505050505081526020016002820160009054906101000a900473ffffffffffffffffffffffffffffffffffffffff1673ffffffffffffffffffffffffffffffffffffffff1673ffffffffffffffffffffffffffffffffffffffff1681526020016003820154815260200160048201548152602001600582015481526020016006820154815260200160078201548152505090506009600183610fc79190612e8a565b81548110610fd857610fd7612dd2565b5b906000526020600020906008020160098381548110610ffa57610ff9612dd2565b5b906000526020600020906008020160008201548160000155600182018160010190805461102690612d35565b611031929190612298565b506002820160009054906101000a900473ffffffffffffffffffffffffffffffffffffffff168160020160006101000a81548173ffffffffffffffffffffffffffffffffffffffff021916908373ffffffffffffffffffffffffffffffffffffffff16021790555060038201548160030155600482015481600401556005820154816005015560068201548160060155600782015481600701559050508060096001846110de9190612e8a565b815481106110ef576110ee612dd2565b5b90600052602060002090600802016000820151816000015560208201518160010190805190602001906111239291906121d2565b5060408201518160020160006101000a81548173ffffffffffffffffffffffffffffffffffffffff021916908373ffffffffffffffffffffffffffffffffffffffff160217905550606082015181600301556080820151816004015560a0820151816005015560c0820151816006015560e0820151816007015590505060019250505b60096001826111b59190612e8a565b815481106111c6576111c5612dd2565b5b906000526020600020906008020160030154600982815481106111ec576111eb612dd2565b5b906000526020600020906008020160030154036115a65760096001826112129190612e8a565b8154811061122357611222612dd2565b5b9060005260206000209060080201600501546009828154811061124957611248612dd2565b5b90600052602060002090600802016005015411156115a55760006009828154811061127757611276612dd2565b5b906000526020600020906008020160405180610100016040529081600082015481526020016001820180546112ab90612d35565b80601f01602080910402602001604051908101604052809291908181526020018280546112d790612d35565b80156113245780601f106112f957610100808354040283529160200191611324565b820191906000526020600020905b81548152906001019060200180831161130757829003601f168201915b505050505081526020016002820160009054906101000a900473ffffffffffffffffffffffffffffffffffffffff1673ffffffffffffffffffffffffffffffffffffffff1673ffffffffffffffffffffffffffffffffffffffff16815260200160038201548152602001600482015481526020016005820154815260200160068201548152602001600782015481525050905060096001836113c69190612e8a565b815481106113d7576113d6612dd2565b5b9060005260206000209060080201600983815481106113f9576113f8612dd2565b5b906000526020600020906008020160008201548160000155600182018160010190805461142590612d35565b611430929190612298565b506002820160009054906101000a900473ffffffffffffffffffffffffffffffffffffffff168160020160006101000a81548173ffffffffffffffffffffffffffffffffffffffff021916908373ffffffffffffffffffffffffffffffffffffffff16021790555060038201548160030155600482015481600401556005820154816005015560068201548160060155600782015481600701559050508060096001846114dd9190612e8a565b815481106114ee576114ed612dd2565b5b90600052602060002090600802016000820151816000015560208201518160010190805190602001906115229291906121d2565b5060408201518160020160006101000a81548173ffffffffffffffffffffffffffffffffffffffff021916908373ffffffffffffffffffffffffffffffffffffffff160217905550606082015181600301556080820151816004015560a0820151816005015560c0820151816006015560e0820151816007015590505060019250505b5b80806115b190613004565b915050610deb565b50610dde565b50565b600360009054906101000a900473ffffffffffffffffffffffffffffffffffffffff1673ffffffffffffffffffffffffffffffffffffffff163373ffffffffffffffffffffffffffffffffffffffff1614611652576040517f08c379a0000000000000000000000000000000000000000000000000000000008152600401611649906130cc565b60405180910390fd5b80600690805190602001906116689291906121d2565b50611671611e00565b60008061167d83611ebe565b90505b8082101561177f57600061169d6116988585866109b0565b610918565b905060006116b66116b186600160056109b0565b610918565b905060006116cf6116ca87600560096109b0565b610918565b90505b8082101561176857600160076000858152602001908152602001600020600087815260200190815260200160002060006101000a81548160ff0219169083151502179055506001600a846060811061172d5761172c612dd2565b5b60070201600f8761173e919061311b565b6007811061174f5761174e612dd2565b5b0181905550600f856117619190612e8a565b94506116d2565b5050506009826117789190612e8a565b9150611680565b505050565b6000600154905090565b600360009054906101000a900473ffffffffffffffffffffffffffffffffffffffff1681565b60076020528160005260406000206020528060005260406000206000915091509054906101000a900460ff1681565b600680546117f090612d35565b80601f016020809104026020016040519081016040528092919081815260200182805461181c90612d35565b80156118695780601f1061183e57610100808354040283529160200191611869565b820191906000526020600020905b81548152906001019060200180831161184c57829003601f168201915b505050505081565b60025481565b60005481565b600360009054906101000a900473ffffffffffffffffffffffffffffffffffffffff1673ffffffffffffffffffffffffffffffffffffffff163373ffffffffffffffffffffffffffffffffffffffff161461190d576040517f08c379a0000000000000000000000000000000000000000000000000000000008152600401611904906130cc565b60405180910390fd5b8060008190555050565b60606009805480602002602001604051908101604052809291908181526020016000905b82821015611a925783829060005260206000209060080201604051806101000160405290816000820154815260200160018201805461197990612d35565b80601f01602080910402602001604051908101604052809291908181526020018280546119a590612d35565b80156119f25780601f106119c7576101008083540402835291602001916119f2565b820191906000526020600020905b8154815290600101906020018083116119d557829003601f168201915b505050505081526020016002820160009054906101000a900473ffffffffffffffffffffffffffffffffffffffff1673ffffffffffffffffffffffffffffffffffffffff1673ffffffffffffffffffffffffffffffffffffffff168152602001600382015481526020016004820154815260200160058201548152602001600682015481526020016007820154815250508152602001906001019061193b565b50505050905090565b60086020528160005260406000206020528060005260406000206000915091509054906101000a900460ff1681565b611ad2612325565b600a606080602002604051908101604052809291906000905b82821015611b4457838260070201600780602002604051908101604052809291908260078015611b30576020028201915b815481526020019060010190808311611b1c575b505050505081526020019060010190611aeb565b50505050905090565b6000603c80600054611b5f9190612e30565b611b699190612e30565b42611b749190612e8a565b905090565b60001515600560009054906101000a900460ff16151514611b9957600080fd5b33600360006101000a81548173ffffffffffffffffffffffffffffffffffffffff021916908373ffffffffffffffffffffffffffffffffffffffff1602179055508160049080519060200190611bf09291906121d2565b508073ffffffffffffffffffffffffffffffffffffffff166329361a7133306040518363ffffffff1660e01b8152600401611c2c92919061314c565b600060405180830381600087803b158015611c4657600080fd5b505af1158015611c5a573d6000803e3d6000fd5b505050506001600560006101000a81548160ff0219169083151502179055505050565b600360009054906101000a900473ffffffffffffffffffffffffffffffffffffffff1673ffffffffffffffffffffffffffffffffffffffff163373ffffffffffffffffffffffffffffffffffffffff1614611d0d576040517f08c379a0000000000000000000000000000000000000000000000000000000008152600401611d04906130cc565b60405180910390fd5b60008310158015611d1f575060068311155b611d5e576040517f08c379a0000000000000000000000000000000000000000000000000000000008152600401611d5590612db2565b60405180910390fd5b60008290505b81811015611dfa57600060076000868152602001908152602001600020600083815260200190815260200160002060006101000a81548160ff0219169083151502179055506000600a8560608110611dbf57611dbe612dd2565b5b60070201600f83611dd0919061311b565b60078110611de157611de0612dd2565b5b0181905550600f81611df39190612e8a565b9050611d64565b50505050565b60005b6007811015611ebb5760005b610960811015611ea757600160076000848152602001908152602001600020600083815260200190815260200160002060006101000a81548160ff0219169083151502179055506001600a8360608110611e6c57611e6b612dd2565b5b60070201600f83611e7d919061311b565b60078110611e8e57611e8d612dd2565b5b0181905550600f81611ea09190612e8a565b9050611e0f565b508080611eb390613004565b915050611e03565b50565b6000806000905060008390505b805182101561217057600060f81b6007828481518110611eee57611eed612dd2565b5b602001015160f81c60f81b7effffffffffffffffffffffffffffffffffffffffffffffffffffffffffffff1916901c7effffffffffffffffffffffffffffffffffffffffffffffffffffffffffffff191603611f5857600182611f519190612e8a565b915061215d565b600660f81b7effffffffffffffffffffffffffffffffffffffffffffffffffffffffffffff19166005828481518110611f9457611f93612dd2565b5b602001015160f81c60f81b7effffffffffffffffffffffffffffffffffffffffffffffffffffffffffffff1916901c7effffffffffffffffffffffffffffffffffffffffffffffffffffffffffffff191603611ffe57600282611ff79190612e8a565b915061215c565b600e60f81b7effffffffffffffffffffffffffffffffffffffffffffffffffffffffffffff1916600482848151811061203a57612039612dd2565b5b602001015160f81c60f81b7effffffffffffffffffffffffffffffffffffffffffffffffffffffffffffff1916901c7effffffffffffffffffffffffffffffffffffffffffffffffffffffffffffff1916036120a45760038261209d9190612e8a565b915061215b565b601e60f81b7effffffffffffffffffffffffffffffffffffffffffffffffffffffffffffff191660038284815181106120e0576120df612dd2565b5b602001015160f81c60f81b7effffffffffffffffffffffffffffffffffffffffffffffffffffffffffffff1916901c7effffffffffffffffffffffffffffffffffffffffffffffffffffffffffffff19160361214a576004826121439190612e8a565b915061215a565b6001826121579190612e8a565b91505b5b5b5b828061216890613004565b935050611ecb565b5050919050565b6040518061010001604052806000815260200160608152602001600073ffffffffffffffffffffffffffffffffffffffff16815260200160008152602001600081526020016000815260200160008152602001600081525090565b8280546121de90612d35565b90600052602060002090601f0160209004810192826122005760008555612247565b82601f1061221957805160ff1916838001178555612247565b82800160010185558215612247579182015b8281111561224657825182559160200191906001019061222b565b5b5090506122549190612353565b5090565b50805461226490612d35565b6000825580601f106122765750612295565b601f0160209004906000526020600020908101906122949190612353565b5b50565b8280546122a490612d35565b90600052602060002090601f0160209004810192826122c65760008555612314565b82601f106122d75780548555612314565b8280016001018555821561231457600052602060002091601f016020900482015b828111156123135782548255916001019190600101906122f8565b5b5090506123219190612353565b5090565b60405180610c0001604052806060905b61233d612370565b8152602001906001900390816123355790505090565b5b8082111561236c576000816000905550600101612354565b5090565b6040518060e00160405280600790602082028036833780820191505090505090565b600081519050919050565b600082825260208201905092915050565b60005b838110156123cc5780820151818401526020810190506123b1565b838111156123db576000848401525b50505050565b6000601f19601f8301169050919050565b60006123fd82612392565b612407818561239d565b93506124178185602086016123ae565b612420816123e1565b840191505092915050565b6000602082019050818103600083015261244581846123f2565b905092915050565b6000819050919050565b6124608161244d565b82525050565b600060208201905061247b6000830184612457565b92915050565b6000604051905090565b600080fd5b600080fd5b600080fd5b600080fd5b7f4e487b7100000000000000000000000000000000000000000000000000000000600052604160045260246000fd5b6124d7826123e1565b810181811067ffffffffffffffff821117156124f6576124f561249f565b5b80604052505050565b6000612509612481565b905061251582826124ce565b919050565b600067ffffffffffffffff8211156125355761253461249f565b5b61253e826123e1565b9050602081019050919050565b82818337600083830152505050565b600061256d6125688461251a565b6124ff565b9050828152602081018484840111156125895761258861249a565b5b61259484828561254b565b509392505050565b600082601f8301126125b1576125b0612495565b5b81356125c184826020860161255a565b91505092915050565b6125d38161244d565b81146125de57600080fd5b50565b6000813590506125f0816125ca565b92915050565b600073ffffffffffffffffffffffffffffffffffffffff82169050919050565b6000612621826125f6565b9050919050565b61263181612616565b811461263c57600080fd5b50565b60008135905061264e81612628565b92915050565b60008060008060008060c087890312156126715761267061248b565b5b600087013567ffffffffffffffff81111561268f5761268e612490565b5b61269b89828a0161259c565b96505060206126ac89828a016125e1565b95505060406126bd89828a016125e1565b94505060606126ce89828a0161263f565b93505060806126df89828a016125e1565b92505060a06126f089828a016125e1565b9150509295509295509295565b600080604083850312156127145761271361248b565b5b6000612722858286016125e1565b9250506020612733858286016125e1565b9150509250929050565b6000602082840312156127535761275261248b565b5b6000612761848285016125e1565b91505092915050565b6000602082840312156127805761277f61248b565b5b600082013567ffffffffffffffff81111561279e5761279d612490565b5b6127aa8482850161259c565b91505092915050565b6000806000606084860312156127cc576127cb61248b565b5b600084013567ffffffffffffffff8111156127ea576127e9612490565b5b6127f68682870161259c565b9350506020612807868287016125e1565b9250506040612818868287016125e1565b9150509250925092565b61282b81612616565b82525050565b600061010082019050612847600083018b612457565b8181036020830152612859818a6123f2565b90506128686040830189612822565b6128756060830188612457565b6128826080830187612457565b61288f60a0830186612457565b61289c60c0830185612457565b6128a960e0830184612457565b9998505050505050505050565b60006020820190506128cb6000830184612822565b92915050565b60008115159050919050565b6128e6816128d1565b82525050565b600060208201905061290160008301846128dd565b92915050565b600081519050919050565b600082825260208201905092915050565b6000819050602082019050919050565b61293c8161244d565b82525050565b600082825260208201905092915050565b600061295e82612392565b6129688185612942565b93506129788185602086016123ae565b612981816123e1565b840191505092915050565b61299581612616565b82525050565b6000610100830160008301516129b46000860182612933565b50602083015184820360208601526129cc8282612953565b91505060408301516129e1604086018261298c565b5060608301516129f46060860182612933565b506080830151612a076080860182612933565b5060a0830151612a1a60a0860182612933565b5060c0830151612a2d60c0860182612933565b5060e0830151612a4060e0860182612933565b508091505092915050565b6000612a57838361299b565b905092915050565b6000602082019050919050565b6000612a7782612907565b612a818185612912565b935083602082028501612a9385612923565b8060005b85811015612acf5784840389528151612ab08582612a4b565b9450612abb83612a5f565b925060208a01995050600181019050612a97565b50829750879550505050505092915050565b60006020820190508181036000830152612afb8184612a6c565b905092915050565b600060609050919050565b600081905092915050565b6000819050919050565b600060079050919050565b600081905092915050565b6000819050919050565b6000612b4f8383612933565b60208301905092915050565b6000602082019050919050565b612b7181612b23565b612b7b8184612b2e565b9250612b8682612b39565b8060005b83811015612bb7578151612b9e8782612b43565b9650612ba983612b5b565b925050600181019050612b8a565b505050505050565b6000612bcb8383612b68565b60e08301905092915050565b6000602082019050919050565b612bed81612b03565b612bf78184612b0e565b9250612c0282612b19565b8060005b83811015612c33578151612c1a8782612bbf565b9650612c2583612bd7565b925050600181019050612c06565b505050505050565b600061540082019050612c516000830184612be4565b92915050565b60008060408385031215612c6e57612c6d61248b565b5b600083013567ffffffffffffffff811115612c8c57612c8b612490565b5b612c988582860161259c565b9250506020612ca98582860161263f565b9150509250929050565b600080600060608486031215612ccc57612ccb61248b565b5b6000612cda868287016125e1565b9350506020612ceb868287016125e1565b9250506040612cfc868287016125e1565b9150509250925092565b7f4e487b7100000000000000000000000000000000000000000000000000000000600052602260045260246000fd5b60006002820490506001821680612d4d57607f821691505b602082108103612d6057612d5f612d06565b5b50919050565b7f64617920697320696e76616c6964000000000000000000000000000000000000600082015250565b6000612d9c600e8361239d565b9150612da782612d66565b602082019050919050565b60006020820190508181036000830152612dcb81612d8f565b9050919050565b7f4e487b7100000000000000000000000000000000000000000000000000000000600052603260045260246000fd5b7f4e487b7100000000000000000000000000000000000000000000000000000000600052601160045260246000fd5b6000612e3b8261244d565b9150612e468361244d565b9250817fffffffffffffffffffffffffffffffffffffffffffffffffffffffffffffffff0483118215151615612e7f57612e7e612e01565b5b828202905092915050565b6000612e958261244d565b9150612ea08361244d565b9250827fffffffffffffffffffffffffffffffffffffffffffffffffffffffffffffffff03821115612ed557612ed4612e01565b5b828201905092915050565b7f6170706f696e746d656e7420646174652f74696d65206973206f75747369646560008201527f206f6620617661696c6162696c69747900000000000000000000000000000000602082015250565b6000612f3c60308361239d565b9150612f4782612ee0565b604082019050919050565b60006020820190508181036000830152612f6b81612f2f565b9050919050565b7f6170706f696e746d656e7420646174652f74696d65206973206e6f742061766160008201527f696c61626c650000000000000000000000000000000000000000000000000000602082015250565b6000612fce60268361239d565b9150612fd982612f72565b604082019050919050565b60006020820190508181036000830152612ffd81612fc1565b9050919050565b600061300f8261244d565b91507fffffffffffffffffffffffffffffffffffffffffffffffffffffffffffffffff820361304157613040612e01565b5b600182019050919050565b60006130578261244d565b91506130628361244d565b92508282101561307557613074612e01565b5b828203905092915050565b7f6f6e6c79206f776e65722066756e6374696f6e00000000000000000000000000600082015250565b60006130b660138361239d565b91506130c182613080565b602082019050919050565b600060208201905081810360008301526130e5816130a9565b9050919050565b7f4e487b7100000000000000000000000000000000000000000000000000000000600052601260045260246000fd5b60006131268261244d565b91506131318361244d565b925082613141576131406130ec565b5b828204905092915050565b60006040820190506131616000830185612822565b61316e6020830184612822565b939250505056fea264697066735822122033b574f68b90deb150abe1ba6d6ca5f4d34dfd40463026e8cd15a70a9ad9d85364736f6c634300080d0033",
  "linkReferences": {},
  "deployedLinkReferences": {}
}