{
  "_format": "hh-sol-artifact-1",
  "contractName": "CommunityTracker",
  "sourceName": "contracts/CommunityTracker.sol",
  "abi": [
    {
      "inputs": [
        {
          "internalType": "address",
          "name": "_owner",
          "type": "address"
        }
      ],
      "stateMutability": "nonpayable",
      "type": "constructor"
    },
    {
      "inputs": [
        {
          "internalType": "address",
          "name": "userAddress",
          "type": "address"
        },
        {
          "internalType": "address",
          "name": "userCalendar",
          "type": "address"
        }
      ],
      "name": "addUserCalendar",
      "outputs": [],
      "stateMutability": "nonpayable",
      "type": "function"
    },
    {
      "inputs": [
        {
          "internalType": "address[]",
          "name": "userEOAs",
          "type": "address[]"
        },
        {
          "internalType": "string",
          "name": "_title",
          "type": "string"
        },
        {
          "internalType": "string",
          "name": "_date",
          "type": "string"
        },
        {
          "internalType": "uint256",
          "name": "_day",
          "type": "uint256"
        },
        {
          "internalType": "address",
          "name": "_attendee",
          "type": "address"
        },
        {
          "internalType": "uint256",
          "name": "_startTime",
          "type": "uint256"
        },
        {
          "internalType": "uint256",
          "name": "_endTime",
          "type": "uint256"
        }
      ],
      "name": "createGroupAppointment",
      "outputs": [],
      "stateMutability": "nonpayable",
      "type": "function"
    },
    {
      "inputs": [],
      "name": "owner",
      "outputs": [
        {
          "internalType": "address",
          "name": "",
          "type": "address"
        }
      ],
      "stateMutability": "view",
      "type": "function"
    }
  ],
  "bytecode": "0x608060405234801561001057600080fd5b50604051610909380380610909833981810160405281019061003291906100db565b806000806101000a81548173ffffffffffffffffffffffffffffffffffffffff021916908373ffffffffffffffffffffffffffffffffffffffff16021790555050610108565b600080fd5b600073ffffffffffffffffffffffffffffffffffffffff82169050919050565b60006100a88261007d565b9050919050565b6100b88161009d565b81146100c357600080fd5b50565b6000815190506100d5816100af565b92915050565b6000602082840312156100f1576100f0610078565b5b60006100ff848285016100c6565b91505092915050565b6107f2806101176000396000f3fe608060405234801561001057600080fd5b50600436106100415760003560e01c806329361a71146100465780635b362d49146100625780638da5cb5b1461007e575b600080fd5b610060600480360381019061005b919061026c565b61009c565b005b61007c600480360381019061007791906104f0565b61011e565b005b6100866101d6565b60405161009391906105f5565b60405180910390f35b80600160008473ffffffffffffffffffffffffffffffffffffffff1673ffffffffffffffffffffffffffffffffffffffff16815260200190815260200160002060006101000a81548173ffffffffffffffffffffffffffffffffffffffff021916908373ffffffffffffffffffffffffffffffffffffffff1602179055505050565b60005b87518110156101cc5787818151811061013d5761013c610610565b5b602002602001015173ffffffffffffffffffffffffffffffffffffffff1663ee8bfb898888888888886040518763ffffffff1660e01b8152600401610187969594939291906106d6565b600060405180830381600087803b1580156101a157600080fd5b505af11580156101b5573d6000803e3d6000fd5b5050505080806101c490610774565b915050610121565b5050505050505050565b60008054906101000a900473ffffffffffffffffffffffffffffffffffffffff1681565b6000604051905090565b600080fd5b600080fd5b600073ffffffffffffffffffffffffffffffffffffffff82169050919050565b60006102398261020e565b9050919050565b6102498161022e565b811461025457600080fd5b50565b60008135905061026681610240565b92915050565b6000806040838503121561028357610282610204565b5b600061029185828601610257565b92505060206102a285828601610257565b9150509250929050565b600080fd5b6000601f19601f8301169050919050565b7f4e487b7100000000000000000000000000000000000000000000000000000000600052604160045260246000fd5b6102fa826102b1565b810181811067ffffffffffffffff82111715610319576103186102c2565b5b80604052505050565b600061032c6101fa565b905061033882826102f1565b919050565b600067ffffffffffffffff821115610358576103576102c2565b5b602082029050602081019050919050565b600080fd5b600061038161037c8461033d565b610322565b905080838252602082019050602084028301858111156103a4576103a3610369565b5b835b818110156103cd57806103b98882610257565b8452602084019350506020810190506103a6565b5050509392505050565b600082601f8301126103ec576103eb6102ac565b5b81356103fc84826020860161036e565b91505092915050565b600080fd5b600067ffffffffffffffff821115610425576104246102c2565b5b61042e826102b1565b9050602081019050919050565b82818337600083830152505050565b600061045d6104588461040a565b610322565b90508281526020810184848401111561047957610478610405565b5b61048484828561043b565b509392505050565b600082601f8301126104a1576104a06102ac565b5b81356104b184826020860161044a565b91505092915050565b6000819050919050565b6104cd816104ba565b81146104d857600080fd5b50565b6000813590506104ea816104c4565b92915050565b600080600080600080600060e0888a03121561050f5761050e610204565b5b600088013567ffffffffffffffff81111561052d5761052c610209565b5b6105398a828b016103d7565b975050602088013567ffffffffffffffff81111561055a57610559610209565b5b6105668a828b0161048c565b965050604088013567ffffffffffffffff81111561058757610586610209565b5b6105938a828b0161048c565b95505060606105a48a828b016104db565b94505060806105b58a828b01610257565b93505060a06105c68a828b016104db565b92505060c06105d78a828b016104db565b91505092959891949750929550565b6105ef8161022e565b82525050565b600060208201905061060a60008301846105e6565b92915050565b7f4e487b7100000000000000000000000000000000000000000000000000000000600052603260045260246000fd5b600081519050919050565b600082825260208201905092915050565b60005b8381101561067957808201518184015260208101905061065e565b83811115610688576000848401525b50505050565b60006106998261063f565b6106a3818561064a565b93506106b381856020860161065b565b6106bc816102b1565b840191505092915050565b6106d0816104ba565b82525050565b600060c08201905081810360008301526106f0818961068e565b90508181036020830152610704818861068e565b905061071360408301876106c7565b61072060608301866105e6565b61072d60808301856106c7565b61073a60a08301846106c7565b979650505050505050565b7f4e487b7100000000000000000000000000000000000000000000000000000000600052601160045260246000fd5b600061077f826104ba565b91507fffffffffffffffffffffffffffffffffffffffffffffffffffffffffffffffff82036107b1576107b0610745565b5b60018201905091905056fea2646970667358221220091da1f3b53f5ba38a6c9d74a05cb70803549ec526e5a5e011096d5b346e934564736f6c634300080d0033",
  "linkReferences": {},
  "deployedLinkReferences": {}
}